:020000040800F2
:1000000058070020D94100084109000843090008A9
:10001000470900084B0900084F09000800000000CC
:10002000000000000000000000000000530900086C
:100030005509000800000000570900085909000888
:10004000F3410008F3410008F3410008F3410008C0
:10005000F3410008F3410008F3410008E7110008EC
:10006000F3410008F3410008F3410008F3410008A0
:10007000F3410008F3410008F3410008F341000890
:10008000F3410008F3410008F3410008F341000880
:10009000F3410008F3410008F3410008F341000870
:1000A000F3410008F3410008F3410008F341000860
:1000B000F3410008F3410008F3410008F341000850
:1000C000F3410008F3410008F3410008F341000840
:1000D000F34100084D410008F3410008F3410008D6
:1000E000F3410008F3410008F341000800F002F872
:1000F00000F044F80AA090E8000C82448344AAF17E
:100100000107DA4501D100F039F8AFF2090EBAE87B
:100110000F0013F0010F18BFFB1A43F0010318473B
:100120006C6C00008C6C0000103A24BF78C878C159
:10013000FAD8520724BF30C830C144BF04680C60ED
:10014000704700000023002400250026103A28BF35
:1001500078C1FBD8520728BF30C148BF0B60704739
:10016000752904F01D87782904F052870020704714
:100170001FB5AFF300801FBD10B510BD05F09BF893
:100180001146FFF7F5FF00F007F805F0B9F8FFF7A3
:10019000F3FF03F081FF000070B586B0002400F08B
:1001A00041FC482003F026FF03F070FF4FF4165087
:1001B00003F080FF01F0A0FE01F000F900F0B2FCB6
:1001C00003F0FAFEF9480068F9490860F948006848
:1001D000F94908608FE301F03EF9F84908700846D4
:1001E000007867287ED01BDC08287CD007DC082834
:1001F0002ED2DFE800F0222E3A468C8D8E8F6328B7
:1002000072D006DC092870D061286FD062281FD117
:1002100084E064286BD065286AD06628F7D181E035
:1002200068380F28E4D2DFE800F07F808182838481
:1002300085868788898A8B8C8D000124DF48007829
:10024000DF4908700021084600F055FD00F074FFFA
:1002500079E00124D9480078D949087001210020AB
:1002600000F049FD00F068FF6DE00124D3480078FC
:10027000D34908700021012000F03DFD00F05CFF33
:1002800061E02020CE490870012C3FD148F2304077
:10029000CC49088040F23B13EB2240F22711B720F3
:1002A00003F0E1FB47F6FF7300934FF49D73EA22DE
:1002B0004FF49471B82003F037FB40F2CF10C149DE
:1002C0000880C1A240F22911B92003F0A0FD182234
:1002D00040F22911C92003F0BFFD192240F2291173
:1002E000DA2006E01FE016E019E015E015E017E05F
:1002F00017E003F0B1FD4FF4FA7003F08FFE4FF6F4
:10030000FF7001F0DCFD00F00DFC00241BE01AE0A2
:1003100019E018E017E016E015E014E013E012E031
:1003200011E010E00FE00EE00DE00CE00BE00AE061
:1003300009E008E007E006E005E004E003E002E091
:1003400001E000E000BF00BF9D48007800287ED19A
:100350009648006896490860964800689649086083
:100360000846006805F0DCFACDE904019048006811
:1003700005F0D6FACDE90201DDE9042305F080F8A5
:10038000CDE9000191A00CC8009805F007FB914A47
:1003900003C290480CC890A003C805F071F8904AB9
:1003A00003C290A00CC88B4803C805F0BFFA4DD219
:1003B0008EA00CC8874803C805F0F0FACDE9040107
:1003C00005F05EFA8B490860084600688A49B0FB70
:1003D000F1F201FB120587480068B0FBF1F62B46ED
:1003E000324686A1884804F0A1FD874AB2212E201A
:1003F00003F00DFD85A2B2219E2003F008FD73A03D
:100400000CC8774803C805F0C9FACDE9040105F026
:1004100037FA84490860084600688349B0FBF1F266
:1004200001FB12057F480068B0FBF1F62B4632460F
:100430007EA1754804F07AFD734AD0212E2003F086
:10044000E6FC7DA2D0219E2003F0E1FC00E01FE14C
:1004500064A00CC85F4803C805F084FB55D863A0AE
:100460000CC85C4803C805F061FA4ED25DA00CC808
:10047000584803C805F092FACDE9040105F000FAE6
:100480005C490860084600685B49B0FBF1F201FB7B
:10049000120558480068B0FBF1F62B46324657A1CA
:1004A000594804F043FD584AB2212E2003F0AFFC16
:1004B00062A2B2219E2003F0AAFC66A00CC84848A4
:1004C00003C805F06BFACDE9040105F0D9F95549E7
:1004D00008600846006842F21071B0FBF1F201FBBF
:1004E000120550480068B0FBF1F62B4632465BA17E
:1004F000454804F01BFD444AD0212E2003F087FC20
:1005000059A2D0219E2003F082FC38A00CC83148AB
:1005100003C805F027FB48D82E4803C805F0B0F9FA
:1005200034490860084600683349B0FBF1F201FB2A
:10053000120530480068B0FBF1F62B4632462FA179
:10054000314804F0F3FC304AB2212E2003F05FFC66
:1005500046A2B2219E2003F05AFC4AA00CC82048B3
:1005600003C805F01BFACDE9040105F089F92D490E
:1005700008600846006842F21071B0FBF1F201FB1E
:10058000120528480068B0FBF1F62B46324633A12D
:100590001D4804F0CBFC1C4AD0212E2003F037FC70
:1005A0003AA2D0219E2003F032FCA4E17800002082
:1005B0002000002074000020240000200000002003
:1005C0000100002084000020330000000000000033
:1005D00084D7974140000020000000000000F03F59
:1005E000280000200000000000408F4000000000B4
:1005F00080842E414C00002040420F00253033758E
:100600002E25303675000000AC000020487A2020EE
:1006100020202020202020202020202020202020DA
:100620002000000030000020A08601002530347535
:100630002E253035750000006D7300006B487A2060
:1006400020202020202020202020202020202020AA
:1006500020200000000000205FA0024225303475F9
:100660002E25303475000000757300004D487A2047
:10067000202020202020202020202020202020207A
:1006800020200000000040E59C30A2426E73000074
:100690009948007801287DD19848006898490860F9
:1006A000102300930923084650210268642003F0B8
:1006B000F9FA9448006894490860102300930923CC
:1006C000084664210268084603F0ECFA8C4800688A
:1006D00005F026F9CDE904018B48006805F020F902
:1006E000CDE90201DDE9042304F0CAFECDE90001F1
:1006F00086A00CC8009805F051F9864A03C2AFF2F3
:1007000014100CC8834803C805F02CFA31D8AFF296
:1007100024100CC87F4803C804F0B2FE7D4A03C20F
:100720007DA00CC87B4803C805F038F9CDE9040169
:1007300005F0A6F87A4908600846006842F2107190
:10074000B0FBF1F201FB120575480068B0FBF1F651
:100750002B46324673A1764804F0E8FB744AD02158
:100760002E2003F054FBAFF23012D0219E2003F074
:100770004EFBAFF288100CC8664803C805F0D6F8E7
:100780003CD2AFF2A0100CC8624803C805F0EAF9E9
:1007900034D800E065E0AFF2B4100CC85D4803C87F
:1007A00004F06EFE5B4A03C25BA00CC8594803C844
:1007B00005F0F4F8CDE9040105F062F85849086045
:1007C0000846006842F21071B0FBF1F201FB12051D
:1007D00053480068B0FBF1F62B463246AFF2841165
:1007E000534804F0A3FB524AD0212E2003F00FFB04
:1007F000AFF28C12D0219E2003F009FBAFF21C2037
:100800000CC8444803C805F091F874D242A00CC843
:10081000404803C805F0C2F8CDE9040105F030F8FE
:100820003F4908600846006842F21071B0FBF1F2DF
:1008300001FB12053A480068B0FBF1F62B46324640
:10084000AFF2E8113A4804F071FB394AD0212E206A
:1008500003F0DDFAAFF2CC12D0219E2003F0D7FADC
:1008600049E025480078022845D1244800682449F9
:10087000086024480068244908600968204A126812
:10088000881805F04DF8CDE904011D48006805F011
:1008900047F8CDE90201DDE9042304F0F1FD254A22
:1008A00003C2AFF2B8200CC8224803C805F076F89E
:1008B000CDE9040104F0E4FF1F4908600846006820
:1008C00042F21071B0FBF1F201FB12051A48006808
:1008D000B0FBF1F62B463246AFF28021144804F00B
:1008E00025FB134AB2212E2003F091FA13A2B22164
:1008F0009E2003F08CFA6EE40100002078000020B6
:1009000020000020740000202400002000000000CF
:100910000000244028000020000000000088C340A0
:1009200030000020253034752E253036750000004B
:10093000AC00002038000020480000202500000006
:10094000704700BFFEE700BFFEE700BFFEE700BF45
:10095000FEE7704770477047704700000020002195
:10096000674A126842F48032654B1A6000BF644ADD
:10097000126802F40031401C11B9B0F5A06FF6D135
:100980005F4A126812F4003F01D0012100E000210B
:10099000012942D15B4A126842F01002594B1A6099
:1009A0001A46126822F003021A601A46126842F0D0
:1009B00002021A60524A5268514B5A601A465268F3
:1009C0005A601A46526842F480625A601A46526867
:1009D00022F47C125A601A46526842F4E8125A60B5
:1009E0001A46126842F080721A6000BF444A1268C8
:1009F00012F0007FFAD0424A526822F00302404BC4
:100A00005A601A46526842F002025A6000BF3C4ADD
:100A1000526802F00C02082AF9D1704710B5FFF7AE
:100A20009DFF10BD10B53648006840F00100344904
:100A30000860084640683449084031494860084623
:100A40000068324908402E4908600846006820F4D2
:100A5000802008600846406820F4FE0048604FF49B
:100A60001F008860FFF7DAFF4FF000602849086038
:100A700010BD10B5002000210022214B5B6803F05F
:100A80000C0020B1042806D0082828D107E0214B0B
:100A9000214C236027E01F4B1F4C236023E0184BA1
:100AA0005B6803F47011164B5B6803F48032022319
:100AB00003EB914122B9194B4B43174C23600DE0D6
:100AC0000F4B5B6813F4003F04D0144B4B43124CA4
:100AD000236003E00F4B4B430F4C236003E00D4BAF
:100AE0000D4C236000BF00BF054B5B68C3F30313CD
:100AF0000B4CE05C084B1B68C340074C236010BDE7
:100B000000100240002002400000FFF8FFFFF6FE48
:100B100008ED00E000127A005400002000093D00BA
:100B20005800002008B51F2300931823F02200214D
:100B3000084602F0F9FE4BF64040FF4908800022CB
:100B40000421482003F088F901220421582003F0F1
:100B500083F902220421682003F07EF90322042194
:100B6000782003F079F904221146882003F074F903
:100B700005220421982003F06FF94FF47843009385
:100B80003123F0221921002002F0CEFE4FF4FC6048
:100B9000E949088006221D214E2003F05DF9072255
:100BA0001D21602003F058F908221D21702003F058
:100BB00053F909221D21802003F04EF90A221D213C
:100BC000902003F049F948F23040DB4908801122B7
:100BD0003621382003F040F912223621482003F054
:100BE0003BF913223621582003F036F9062236212C
:100BF000682003F031F907223621782003F02CF920
:100C000014223621882003F027F906223621982065
:100C100003F022F915223621A82003F01DF9002047
:100C2000C54908804FF49B73E6224A210A2002F04E
:100C30001AFF42F61230C0490880102300930123A6
:100C400000224E211A2003F02DF814224E212D20CF
:100C500003F002F908224E21412003F0FDF8092299
:100C60004E21552003F0F8F8B4A24E21692003F07C
:100C7000CEF81A224E217D2003F0EEF81B224E21E1
:100C8000912003F0E9F81023009301231A46B221C2
:100C90001A2003F007F80B22B2212D2003F0DCF814
:100CA0000C22B221412003F0D7F80C22B2215520AA
:100CB00003F0D2F80D22B221692003F0CDF8102301
:100CC0000093012302224FF48B711A2002F0EAFFF5
:100CD0000E224FF48B712D2003F0BEF80F224FF43B
:100CE0008B71412003F0B8F810224FF48B7155201E
:100CF00003F0B2F808BD38B504460D46002C7ED18D
:100D0000002DFCD18E4908608E49C1F88C014FF648
:100D1000FF7001F0D4F81F2300931823F022002164
:100D2000084602F001FE4BF640408349088000224D
:100D30000421482003F090F801220421582003F0F8
:100D40008BF802220421682003F086F80322042194
:100D5000782003F081F804221146882003F07CF803
:100D600005220421982003F077F84FF4784300938C
:100D70003123F0221921002002F0D6FD4FF4FC604F
:100D80006D49088006221D214E2003F065F80722D8
:100D90001D21602003F060F808221D21702003F05F
:100DA0005BF809221D21802003F056F80A221D213C
:100DB000902003F051F84FF61F005F49088016227B
:100DC00080212D2003F048F817228021412003F0D4
:100DD00043F808228021552003F03EF809228021A3
:100DE000692003F039F855A280217D2003F00FF827
:100DF0001A228021912003F02FF81B2200E030E01E
:100E00008021A52003F028F800204B49088040F2FB
:100E10003B13EB2240F22711B72002F024FE48F2E8
:100E20001F4300934FF49D73EA224FF49471B8204E
:100E300002F07AFD40F2CF103F49088042A240F212
:100E40002911B92002F0E3FF182240F22911C9202C
:100E500003F002F8192240F22911DA2002F0FCFF17
:100E600063E1002C72D1012DFCD1012034490860CE
:100E700000203449C1F88C014FF6FF7001F01FF8D3
:100E80001F2300931823F0220021084602F04CFD96
:100E90004BF640402849088000220421482002F0F7
:100EA000DBFF01220421582002F0D6FF0222042198
:100EB000682002F0D1FF03220421782002F0CCFF49
:100EC00004221146882002F0C7FF05220421982041
:100ED00002F0C2FF4FF4784300933123F02219212E
:100EE000002002F021FD4FF4FC6013490880062227
:100EF0001D214E2002F0B0FF07221D21602002F0CC
:100F0000ABFF08221D21702002F0A6FF09221D213F
:100F1000802002F0A1FF0A221D21902002F09CFFF8
:100F20004FF6074004490880162280212D2002F048
:100F300093FF172280210AE0840000202F00000088
:100F400088812242008022423300000044E0412098
:100F500002F082FF0B228021552002F07DFF0C223F
:100F60008021692002F078FF0C2280217D2002F090
:100F700073FF0D228021912002F06EFF00206B494B
:100F8000088040F23B13EB2240F22711B72002F019
:100F90006AFD48F21F4300934FF49D73EA224FF419
:100FA0009471B82002F0C0FC40F2CF105F49088075
:100FB000AFF26C0240F22911B92002F028FF18228A
:100FC00040F22911C92002F047FF192240F22911ED
:100FD000DA2002F041FFA8E0012CFCD1002DFAD16B
:100FE00000205349086001205249C1F88C014FF696
:100FF000FF7000F064FF1F2300931823F0220021EC
:10100000084602F091FC4BF6404048490880002217
:101010000421482002F020FF01220421582002F080
:101020001BFF02220421682002F016FF0322042184
:10103000782002F011FF04221146882002F00CFFF4
:1010400005220421982002F007FF4FF47843009313
:101050003123F0221921002002F066FC4FF4FC60DD
:101060003249088006221D214E2002F0F5FE07229B
:101070001D21602002F0F0FE08221D21702002F0E8
:10108000EBFE09221D21802002F0E6FE0A221D212E
:10109000902002F0E1FE45F25840244908801622D3
:1010A00080212D2002F0D8FE17228021412002F05D
:1010B000D3FE0E228021552002F0CEFE0F22802189
:1010C000692002F0C9FE102280217D2002F0C4FEBA
:1010D00000201649088040F23B13EB2240F2271112
:1010E000B72002F0C0FC48F21F4300934FF49D73F9
:1010F000EA224FF49471B82002F016FC40F2CF10AF
:101100000A490880AFF2C01240F22911B92002F05A
:101110007EFE182240F22911C92002F09DFE1922FC
:1011200040F22911DA2002F097FE38BD8400002039
:1011300088812242008022421FB50121974803F096
:101140009EFA0121052003F079FC0121212003F002
:1011500075FC4FF47F40ADF80C0028208DF80F008F
:1011600003208DF80E0003A98D4803F0BDF902207D
:10117000ADF80C0048208DF80F0003208DF80E000C
:1011800003A9884803F0B0F94FF4E050ADF80C0023
:1011900010208DF80F0003208DF80E0003A9814860
:1011A00003F0A2F90121002003F0ADFA0220019022
:1011B00000208DF808000C208DF8090001208DF822
:1011C0000A0001A803F0A8F807208DF8000002200B
:1011D0008DF8010001208DF802008DF803006846AB
:1011E00003F01FF81FBD10B5022003F001F900281D
:1011F0007ED002216B4803F005FA002878D16A49B5
:1012000008606A49C1F8AC016749083108600120EB
:1012100002F01FFF624803F0FEF96549096841EAE0
:101220001020634908600846006800020860012039
:101230005D4908600020091D08605C49C1F8B001E3
:10124000012002F006FF564803F0E5F95849096805
:1012500041EA10205649086008460068000208600C
:101260000020514908600120091D086000204F49F5
:10127000C1F8B001012002F0ECFE494803F0CBF9BF
:101280004B49096841EA102049490860084600684E
:1012900000020860012044490860091D0860002020
:1012A0004249C1F8B001012002F0D3FE3C4803F0EE
:1012B000B2F93F49096841EA10203D4908600846F3
:1012C00000683C49086000203949086036490860D8
:1012D000091D086001203549C1F8B00102F0B9FECE
:1012E0002F4803F098F93249096841EA102000E0DC
:1012F00050E02F490860084600680002086001209D
:10130000294908600020091D086001202749C1F80B
:10131000B00102F09EFE224803F07DF924490968DD
:1013200041EA10202249086008460068000208606F
:1013300000201D4908600120091D08601B49C1F8F3
:10134000B00102F086FE164803F065F918490968F5
:1013500041EA10201649086008460068000208604B
:10136000012011490860091D08601049C1F8B00149
:1013700002F06FFE0A4803F04EF90D49096841EA90
:1013800010200B490860084600680B4908600020DF
:1013900007490860022003F03CF810BD000230004D
:1013A0000014014000080140A80121420000214230
:1013B00080000020740000207800002008B5012182
:1013C000202003F03BFB7020ADF8000010208DF8CA
:1013D000030003208DF802006946FB4803F084F8FF
:1013E0008020ADF8000028208DF8030003208DF840
:1013F00002006946F44803F077F808BD0020012296
:10140000F24B1A60F24BC3F894210022EF4B1B1DE4
:101410001A6001221A6000221B1F1A60EC4BC3F8ED
:101420009821EA4A743A126802B1401C00210FE088
:101430000122E64B08331A604000E54AD2F81C212D
:1014400002B1401C0022E14B08331A604A1CD1B2A1
:101450001F29EDDB704710B5FFF7D0FF0446601C75
:1014600074D0142002F0DAFDFFF7C8FF0446601CB8
:10147000F6D06FF48041601A8C4268D038DC10F5E9
:101480007F1F70D01CDCD34AA0EB020190426BD0CE
:101490000CDCB1F1444F68D0B1F1644F75D0B1F1BB
:1014A000744F73D0B1F17C4F50D1E2E1CA4940187A
:1014B0006DD0B0F1807F6BD0B0F1C07FF4D19CE1F2
:1014C00010F5703F74D009DC10F5FE1F71D010F5D7
:1014D0007C2F6FD010F5F82FE6D148E110F5E03FF2
:1014E00069D010F5404F67D010F5804FDCD102E194
:1014F00014F1410F70D01BDC6FF48061A4EB01008C
:101500008C426AD009DC10F5E05F67D010F5406FBF
:1015100074D010F5806FC7D1B1E040F201200019FE
:101520006DD0B0F5807F6BD0B0F5C07FBCD168E0E6
:1015300014F1050F2DD00BDC14F1210F70D014F134
:10154000110F6ED014F1090FAED10FE008E2E1E007
:1015500014F1030F31D014F1020F40D06FF00040AE
:10156000201AA1D1C1E157E192E1CCE100BFFFF720
:1015700045FF401CFBD1142002F050FD00BFFFF7D7
:101580003DFF401CFBD1732010BDCBE1D9E18EE1C2
:101590009CE100BFFFF732FF401CFBD1142002F09A
:1015A0003DFD00BFFFF72AFF401CFBD17420EBE795
:1015B000ECE040E14EE1F8E010E100BFFFF71EFF74
:1015C000401CFBD1142002F029FD00BFFFF716FFDD
:1015D000401CFBD17520D7E724E05FE0A9E000BF05
:1015E000FFF70CFF401CFBD1142002F017FD00BFD9
:1015F000FFF704FF401CFBD17620C5E7A8E05CE0C4
:101600006AE000BFFFF7FAFE401CFBD1142002F095
:1016100005FD00BFFFF7F2FE401CFBD16F20B3E7D2
:101620000FE01DE000BFFFF7E9FE401CFBD11420D6
:1016300002F0F4FC00BFFFF7E1FE401CFBD170207C
:10164000A2E700BFFFF7DAFE401CFBD1142002F036
:10165000E5FC00BFFFF7D2FE401CFBD1712093E7F1
:1016600000BFFFF7CBFE401CFBD1142002F0D6FCDC
:1016700000BFFFF7C3FE401CFBD1722084E700BF10
:10168000FFF7BCFE401CFBD1142002F0C7FC00BFDA
:10169000FFF7B4FE401CFBD16B2075E700BFFFF7DE
:1016A000ADFE401CFBD1142002F0B8FC00BFFFF7D8
:1016B000A5FE401CFBD16C2066E700BFFFF79EFE35
:1016C000401CFBD1142002F0A9FC00BFFFF796FEDE
:1016D000401CFBD16D2057E700BFFFF78FFE401C79
:1016E000FBD1142002F09AFC00BFFFF787FE401CDC
:1016F000FBD16E2048E700BFFFF780FE401CFBD106
:10170000142002F08BFC00BFFFF778FE401CFBD1D9
:10171000672039E700BFFFF771FE401CFBD11420A2
:1017200002F07CFC00BFFFF769FE401CFBD1682083
:101730002AE700BFFFF762FE401CFBD1142002F035
:101740006DFC00BFFFF75AFE401CFBD169201BE770
:1017500000BFFFF753FE401CFBD1142002F05EFCDB
:1017600000BFFFF74BFE401CFBD16A200CE700BF17
:10177000FFF744FE401CFBD1142002F04FFC00BFD9
:10178000FFF73CFE401CFBD16320FDE600BFFFF7E6
:1017900035FE401CFBD1142002F040FC00BFFFF7D7
:1017A0002DFE401CFBD16420EEE600BFFFF726FEB5
:1017B000401CFBD1142002F031FC00BFFFF71EFEDD
:1017C000401CFBD16520DFE60014014090812242DD
:1017D00000802242004000FC00C0FF0100BFFFF774
:1017E0000DFE401CFBD1142002F018FC00BFFFF7D7
:1017F00005FE401CFBD16620C6E600BFFFF7FEFDDC
:10180000401CFBD1142002F009FC00BFFFF7F6FDDD
:10181000401CFBD10820B7E600BFFFF7EFFD401CDE
:10182000FBD1142002F0FAFB00BFFFF7E7FD401CDC
:10183000FBD10920A8E600BFFFF7E0FD401CFBD16B
:10184000142002F0EBFB00BFFFF7D8FD401CFBD1DA
:10185000612099E600BFFFF7D1FD401CFBD11420A9
:1018600002F0DCFB00BFFFF7C9FD401CFBD162208A
:101870008AE600BFFFF7C2FD401CFBD1142002F036
:10188000CDFB00BFFFF7BAFD401CFBD104207BE677
:1018900000BFFFF7B3FD401CFBD1142002F0BEFBDC
:1018A00000BFFFF7ABFD401CFBD105206CE600BF7D
:1018B000FFF7A4FD401CFBD1142002F0AFFB00BFDA
:1018C000FFF79CFD401CFBD106205DE600BFFFF743
:1018D00095FD401CFBD1142002F0A0FB00BFFFF7D8
:1018E0008DFD401CFBD107204EE600BFFFF786FDB3
:1018F000401CFBD1142002F091FB00BFFFF77EFDDE
:10190000401CFBD140E600BFFFF778FD401CFBD137
:10191000142002F083FB00BFFFF770FD401CFBD1D9
:10192000012031E600BFFFF769FD401CFBD1142008
:1019300002F074FB00BFFFF761FD401CFBD10220E9
:1019400022E600BFFFF75AFD401CFBD1142002F035
:1019500065FB00BFFFF752FD401CFBD1032013E6DF
:101960001F2011E64FF48071FF4A51614900516117
:10197000FE49086080215161116189001161704741
:1019800010B54FF08830F9490C390860F849C1F8B2
:10199000040C0020F54908608815F34908614000EF
:1019A000486140204861F3480088A0F50941893921
:1019B00002D1022002F04DFB4020EB490861EB48C8
:1019C000001F006884B2481508614FF03330E849C1
:1019D000C1F8000CE549083908604FF6FF70E4498A
:1019E000C1F80C0C204610BD10B504460B4620462D
:1019F000FFF7B8FF4FF48070DB4908614000486191
:101A0000DA4803608020486108618000086110BDE9
:101A100010B504462046FFF7A5FFFFF7B1FF10BD44
:101A200000B5D4480088A0F51341413903D12C20DA
:101A3000FFF798FF02E02220FFF794FF00BD4FF46C
:101A40008071C94A116149005161C849086080210B
:101A50005161116189001161704730B5014601F093
:101A60001F04C1F34513CA0AE50205EB43151544EB
:101A7000A8B230BD2DE9F04104460D46F02C02DA43
:101A8000B5F5A07F02DB0020BDE8F08129462046A5
:101A900003F040FCB7480088A0F51341413903D159
:101AA0002E20FFF75FFF02E02220FFF75BFF4FF0E1
:101AB0008830AE490C390860AD49C1F8040C4FF6C6
:101AC000FF70AA4908608815A7490861400048616D
:101AD0004020486108614861A6480088A0F5094196
:101AE000893902D1022002F0B4FA40209E490861EF
:101AF0009E48001F006886B29E480088A0F51341EA
:101B000041390AD140209849486108619748001F2F
:101B100000681FFA80F8F7B23F024FF40070924954
:101B200008614FF0333091490C3908609049C1F891
:101B3000040C4FF6FF70C1F80C0C8E480088A0F51D
:101B40008A41353911D08B480088A0F58A41313956
:101B50000BD088480088A0F50941893905D085480F
:101B60000088A0F53541053901D130468CE7814820
:101B70000088A0F51341413907D1F012C002B91213
:101B800040EA411040EAE8207EE73046FFF765FF73
:101B90007AE700B577480088A0F51341413903D1B1
:101BA0002920FFF7DFFE04E040F273110720FFF762
:101BB0001BFF00BD00B56F480088A0F513414139F7
:101BC00003D12820FFF7CEFE03E000210720FFF716
:101BD0000BFF00BD70B5044600250026654800884F
:101BE000A0F5134141397ED1082C1CD2DFE804F066
:101BF0000406090C0F12151800BF14E045F080050B
:101C000011E045F040050EE045F0C0050BE045F061
:101C1000200508E045F0600505E045F0A00502E07C
:101C200045F0E00500BF00BF362645F0080529460F
:101C30003046FFF7D9FE15F0200F76D02A20FFF7A7
:101C400091FE4FF4807048490861400048610020CF
:101C50004649086080204449486108618000086165
:101C6000401008614000486100204149C1F80C0C57
:101C700080203D494861086180000861401008618A
:101C80004000486101203949086080203649486198
:101C900008618000086140100861400048613F20F1
:101CA000324908608020304948610861800008613D
:101CB0002B20FFF757FE4FF480702B49086140003E
:101CC000486100202949086080202749486108614F
:101CD00080000861401008614000486100202349ED
:101CE0000860802000E09DE01F4948610861800095
:101CF0000861401008614000486100201B490860ED
:101D0000802019494861086180000861401008611D
:101D100040004861EF201549086080201249486161
:101D2000086180000861AFE0FFE72A20FFF71AFE94
:101D30004FF480700C4908614000486100200B4955
:101D400008608020084948610861800008614010EF
:101D500008614000486100200549C1F80C0C802052
:101D600001494861086107E0001001400C0C014086
:101D700000000140880000208000086140100861D8
:101D8000400048610020FF4908608020FE4948610A
:101D90000861800008614010086140004861EF2040
:101DA000F84908608020F8494861086180000861AE
:101DB0002B20FFF7D7FD4FF48070F34908614000F6
:101DC00048610020EF4908608020EF4948610861C0
:101DD0008000086140100861400048610020E94926
:101DE00008608020E849486108618000086140106F
:101DF0000861400048610120E24908608020E24912
:101E00004861086180000861401008614000486135
:101E10003F20DC4908608020DB4948610861800080
:101E2000086131E0082C1CD2DFE804F004070A0D39
:101E30000F12151845F0300513E045F0100510E0BD
:101E400045F020050DE000BF0BE045F0380508E047
:101E500045F0280505E045F0180502E045F00805C5
:101E600000BF00BFC9480088A0F50941893904D1E5
:101E7000112646F24000054302E0032645F4805552
:101E800029463046FFF7B0FD70BD70B504460D46DB
:101E90002946204603F03EFAFFF7C2FD4FF480705A
:101EA000B949086140004861B9480088B5490860EF
:101EB0008020B549486108618000086170BD70B537
:101EC000054600240021084603F024FAFFF7A8FD88
:101ED00000BF0DE04FF48070AB49086140004861DD
:101EE000A848056080204861086180000861641C82
:101EF000B4F5963FEED370BD08B50121192002F06C
:101F00009DFD0121A34802F0BAFB4FF4F860ADF843
:101F1000000010208DF8030003208DF802006946B0
:101F2000994802F0E1FA4FF4F861974802F084FB17
:101F30004FF6FF70ADF80000694692480C3802F089
:101F4000D3FA4FF6FF718F480C3802F075FB322040
:101F500002F064F801210020FFF746FD322002F074
:101F60005DF80020FFF754FD884908800846008886
:101F700028B108460088A0F57F41FF3918D1D32049
:101F8000FFF7F0FCFFF7FCFCFFF7FAFCFFF7F8FCAB
:101F900000F0BF007D490880084600880006000C5C
:101FA0000880FFF7EDFC79490988084377490880E4
:101FB0007648018878A002F0A9FF74480088A0F54F
:101FC000134141397ED1CF20FFF7CCFC4FF4807014
:101FD0006D4908614000486100206A49086080201E
:101FE000694948610861800008614010086140004B
:101FF0004861C1206C49C1F80C0C802062494861DD
:10200000086180000861401008614000486130208C
:102010005C49086080205C49486108618000086173
:10202000ED20FFF79FFC4FF4807057490861400096
:102030004861642053490860802053494861086121
:1020400080000861401008614000486103204D494C
:10205000086080204C494861086180000861401098
:1020600008614000486112204649086080204649C6
:1020700048610861800008614010086140004861C3
:1020800081204049086080203F4948610861800004
:102090000861E820FFF766FC4FF480703A49086158
:1020A00040004861852037490860802036494861F2
:1020B00008618000086140100861400048611020FC
:1020C000304900E092E3086080202F4948610861B0
:1020D0008000086140100861400048617A20294969
:1020E0000860802028494861086180000861CB2091
:1020F000FFF738FC4FF480702349086140004861C5
:1021000039202049086080201F494861086180000B
:10211000086140100861400048612C20194908609E
:1021200080201949486108618000086140100861F9
:10213000400048610020134908608020124948612E
:102140000861800008614010086140004861342047
:102150000C49086080200C494861086180000861D2
:102160004010086140004861022006490860802054
:1021700005494861086180000861F720FFF7F2FB1C
:1021800014E000000C0C0140001001408800002009
:102190008400002000023000204C43442049443A8F
:1021A00025780D0A00000000000001404FF4807007
:1021B000FF490861400048612020FE4908608020F6
:1021C000FB494861086180000861EA20FFF7CAFB0B
:1021D0004FF48070F6490861400048610020F549DD
:1021E00008608020F2494861086180000861401061
:1021F0000861400048610020EE4908608020EC49F9
:102200004861086180000861C020FFF7ABFB4FF414
:102210008070E7490861400048611B20E54908607B
:102220008020E3494861086180000861C120FFF710
:1022300099FB4FF48070DE4908614000486101203D
:10224000DC4908608020DA49486108618000086143
:10225000C520FFF787FB4FF48070D5490861400027
:1022600048613020D34908608020D1494861086125
:102270008000086140100861400048613020CE496C
:10228000C1F80C0C8020CA494861086180000861CF
:10229000C720FFF767FB4FF48070C5490861400015
:1022A0004861B720C34908608020C149486108617E
:1022B000800008613620FFF755FB4FF48070BC4961
:1022C0000861400048614820BA4908608020B84948
:1022D00048610861800008613A20FFF743FB4FF432
:1022E0008070B3490861400048615520B1490860D9
:1022F0008020AF494861086180000861B120FFF784
:1023000031FB4FF48070AA49086140004861002009
:10231000A84908608020A6494861086180000861DA
:1023200040100861400048611A20A24908608020DE
:102330009F494861086180000861B620FFF712FBE1
:102340004FF480709A490861400048610A20994919
:10235000086080209649486108618000086140104B
:10236000086140004861A22092490860802090499D
:102370004861086180000861F220FFF7F3FA4FF42A
:1023800080708B49086140004861002089490860DD
:102390008020874948610861800008612620FFF796
:1023A000E1FA4FF4807082490861400048610120E1
:1023B0008049086080207E4948610861800008618A
:1023C000E020FFF7CFFA4FF48070794908614000B0
:1023D00048610F207749086080207549486108618D
:1023E0008000086140100861400048612A2071495E
:1023F000086080206E4948610861800008614010D3
:1024000008614000486128206A49086080206849C6
:10241000486108618000086140100861400048611F
:102420000820644908608020614948610861800093
:10243000086140100861400048610E205D49086055
:1024400080205B4948610861800008614010086194
:10245000400048610820574908608020544948617D
:102460000861800008614010086140004861542004
:102470005049086080204E49486108618000086129
:102480004010086140004861A9204A490860802046
:1024900047494861086180000861401008614000B8
:1024A00048614320434908608020414948610861F0
:1024B0008000086140100861400048610A203D49E1
:1024C000086080203A494861086180000861401036
:1024D0000861400048610F20364908608020344977
:1024E000486108618000086140100861400048614F
:1024F00000203149C1F80C0C80202D494861086149
:1025000080000861401008614000486100202949AE
:1025100008608020264948610861800008614010F9
:10252000086140004861002022490860802020495D
:1025300048610861800008614010086140004861FE
:1025400000201C490860802019494861086180000A
:102550000861E120FFF706FA4FF480701449086122
:1025600040004861002013490860802010494861FC
:102570000861800008614010086140004861152032
:102580000C49086080200A494861086180000861A0
:10259000401008614000486117200649086080200B
:1025A000034948610861800008614010086105E046
:1025B000001001400C0C0140000001404000486147
:1025C0000720F94908608020F849486108618000C7
:1025D000086140100861400048611120F24908601C
:1025E0008020F2494861086180000861401008615C
:1025F000400048610620EC4908608020EB494861B2
:1026000008618000086140100861400048612B208B
:10261000E54908608020E54948610861800008615B
:1026200040100861400048615620DF490860802062
:10263000DE4948610861800008614010086140007F
:1026400048613C20D84908608020D8494861086129
:102650008000086140100861400048610520D249AF
:1026600008608020D14948610861800008614010FD
:102670000861400048611020CB4908608020CB49A8
:1026800048610861800008614010086140004861AD
:102690000F20C54908608020C44948610861800056
:1026A000086140100861400048613F20BE49086051
:1026B0008020BE49486108618000086140100861BF
:1026C000400048613F20B84908608020B749486110
:1026D00008618000086140100861400048610F20D7
:1026E000B14908608020B1494861086180000861F3
:1026F0002B20FFF737F94FF48070AC490861400098
:1027000048610020A84908608020A8494861086104
:102710008000086140100861400048610020A24923
:1027200008608020A149486108618000086140106C
:1027300008614000486101209D49C1F80C0C8020CF
:102740009A494861086180000861401008614000B2
:1027500048613F209449086080209449486108619D
:10276000800008612A20FFF7FDF84FF480708F4940
:1027700008614000486100208B49086080208B4937
:1027800048610861800008614010086140004861AC
:1027900000208549086080208449486108618000E4
:1027A0000861401008614000486100207E490860CF
:1027B00080207E49486108618000086140100861FE
:1027C00040004861EF2078490860802077494861DF
:1027D0000861800008611120FFF7C4F8782001F03B
:1027E0001DFC2920FFF7BEF801F093B8714800885E
:1027F000A0F5134125397ED147F6F001E520FFF71A
:10280000F3F84FF480710120FFF7EEF84FF4E06128
:102810000220FFF7E9F841F230010320FFF7E4F866
:1028200000210420FFF7E0F840F202210820FFF722
:10283000DBF800210920FFF7D7F800210A20FFF775
:10284000D3F800210C20FFF7CFF800210D20FFF76F
:10285000CBF800210F20FFF7C7F800211020FFF769
:10286000C3F807211120FFF7BFF800211220FFF75E
:10287000BBF800211320FFF7B7F800210720FFF76E
:10288000B3F841F290611020FFF7AEF840F2272133
:102890001120FFF7A9F89D211220FFF7A5F84FF4AA
:1028A000C8511320FFF7A0F825212920FFF79CF835
:1028B0000D212B20FFF798F807213020FFF794F81F
:1028C00040F203313120FFF78FF803213220FFF768
:1028D0008BF840F206213520FFF786F808213620D4
:1028E000FFF782F840F206413720FFF77DF84FF4FA
:1028F0004171382000E05FE0FFF776F807213920CA
:10290000FFF772F840F202613C20FFF76DF80821F2
:102910003D20FFF769F800215020FFF765F8EF210F
:102920005120FFF761F800215220FFF75DF840F2D7
:102930003F115320FFF758F84FF427416020FFF76D
:1029400053F801216120FFF74FF800216A20FFF7BB
:102950004BF800218020FFF747F800218120FFF786
:1029600043F800218220FFF73FF800218320FFF782
:102970003BF800218420FFF737F800218520FFF77E
:1029800033F810219020FFF72FF84FF4C061922008
:10299000FFF72AF840F233110720FFF725F822212C
:1029A0000020FFF721F81FE70C0C01400010014048
:1029B0000000014088000020FF480088A0F5134176
:1029C00028397ED11021E720FFF70EF801210020E1
:1029D000FFF70AF84FF480710120FFF705F84FF474
:1029E000E0610220FFF700F841F230010320FEF71A
:1029F000FBFF00210420FEF7F7FF40F2072108202B
:102A0000FEF7F2FF00210920FEF7EEFF00210A2069
:102A1000FEF7EAFF01210C20FEF7E6FF00210D2062
:102A2000FEF7E2FF00210F20FEF7DEFF002110205D
:102A3000FEF7DAFF07211120FEF7D6FF0021122052
:102A4000FEF7D2FF00211320FEF7CEFF322001F067
:102A5000E5FA41F290511020FEF7C6FF40F227211F
:102A60001120FEF7C1FF322001F0D8FA9C2112207C
:102A7000FEF7BAFF322001F0D1FA4FF4C85113200B
:102A8000FEF7B2FF23212920FEF7AEFF0E212B20F7
:102A9000FEF7AAFF322001F0C1FA00212020FEF744
:102AA000A3FF40F23F112120FEF79EFF322001F0EC
:102AB000B5FA07213020FEF797FF40F20771312069
:102AC00000E086E0FEF790FF06213220FEF78CFF43
:102AD00040F204713520FEF787FF41F6047136207D
:102AE000FEF782FF04213720FEF77EFF0021382009
:102AF000FEF77AFF40F206713920FEF775FF40F2CB
:102B000001713C20FEF770FF0F213D20FEF76CFFA6
:102B1000322001F083FA00215020FEF765FFEF21FB
:102B20005120FEF761FF00215220FEF75DFF40F2C9
:102B30003F115320FEF758FF4FF427416020FEF766
:102B400053FF01216120FEF74FFF00216A20FEF7AD
:102B50004BFF00218020FEF747FF00218120FEF778
:102B600043FF00218220FEF73FFF00218320FEF774
:102B70003BFF00218420FEF737FF00218520FEF770
:102B800033FF10219020FEF72FFF00219220FEF747
:102B90002BFF03219320FEF727FF4FF48871952028
:102BA000FEF722FF00219720FEF71EFF002198204C
:102BB000FEF71AFF40F233110720FEF715FF002140
:102BC0002020FEF711FF40F23F112120FEF70CFFFD
:102BD0000AE679480088A0F51341203904D07648E8
:102BE0000088B0F5134F7ED100210846FEF7FCFEA9
:102BF0004FF480710120FEF7F7FE4FF4E0610220F0
:102C0000FEF7F2FE41F230010320FEF7EDFE002157
:102C10000420FEF7E9FE40F202210820FEF7E4FE60
:102C200000210920FEF7E0FE00210A20FEF7DCFE6D
:102C300001210C20FEF7D8FE00210D20FEF7D4FE66
:102C400000210F20FEF7D0FE322001F0E7F940F21C
:102C500001110720FEF7C8FE322001F0DFF94FF422
:102C600086511020FEF7C0FE07211120FEF7BCFEA2
:102C70004FF488711220FEF7B7FE4FF43061132035
:102C8000FEF7B2FE00212920FEF7AEFE44F210014D
:102C90002B20FEF7A9FE00215020FEF7A5FEEF2114
:102CA0005120FEF7A1FE00215220FEF79DFE40F2CA
:102CB0003F115320FEF798FE4FF41C516020FEF7A1
:102CC00093FE01216120FEF78FFE00216A20FEF7AE
:102CD0008BFE00218020FEF787FE00218120FEF779
:102CE00083FE002100E02DE08220FEF77DFE002122
:102CF0008320FEF779FE00218420FEF775FE002177
:102D00008520FEF771FE10219020FEF76DFE002158
:102D10009220FEF769FE01219320FEF765FE4FF435
:102D200088719520FEF760FE00219720FEF75CFE7B
:102D300000219820FEF758FE40F273110720FEF79D
:102D400053FE51E51C480088A0F5A84108397ED102
:102D50004FF480710120FEF747FE4FF4E06102203E
:102D6000FEF742FE41F230010320FEF73DFE002156
:102D70000420FEF739FE40F207210820FEF734FE5A
:102D800000210920FEF730FE00210A20FEF72CFE6C
:102D900000210C20FEF728FE00210D20FEF724FE66
:102DA00000210F20FEF720FE142001F037F941F238
:102DB000B061102002E0000088000020FEF714FE41
:102DC00001211120FEF710FE01211720FEF70CFE55
:102DD0004FF49C711220FEF707FE4FF400611320A0
:102DE000FEF702FE09212920FEF7FEFD09212A2017
:102DF000FEF7FAFD0021A420FEF7F6FD0021502089
:102E0000FEF7F2FDEF215120FEF7EEFD00215220EA
:102E1000FEF7EAFD40F23F115320FEF7E5FD4FF4C7
:102E20001C516020FEF7E0FD01216120FEF7DCFD72
:102E300000216A20FEF7D8FD00218020FEF7D4FD96
:102E400000218120FEF7D0FD0021822000E027E054
:102E5000FEF7CAFD00218320FEF7C6FD0021842075
:102E6000FEF7C2FD00218520FEF7BEFD1321902054
:102E7000FEF7BAFD00219220FEF7B6FD0321932054
:102E8000FEF7B2FD4FF488719520FEF7ADFD40F2DC
:102E900073110720FEF7A8FD322001F0BFF8A3E46C
:102EA000FF480088A0F5A85105397ED10720FEF71C
:102EB0009BFD322001F0B2F84FF48E711220FEF724
:102EC00093FD0121A420FEF78FFD0F210820FEF7BE
:102ED0008BFD08210A20FEF787FD08210D20FEF753
:102EE00083FD40F207713020FEF77EFD072131207F
:102EF000FEF77AFD40F203613220FEF775FD4FF4D4
:102F0000E0613320FEF770FD40F202213420FEF72D
:102F10006BFD02213520FEF767FD41F60F7136206B
:102F2000FEF762FD40F207713720FEF75DFD0021DC
:102F30003820FEF759FD00213920FEF755FD40F2FB
:102F400007713A20FEF750FD00213B20FEF74CFDB3
:102F500007213C20FEF748FD00213D20FEF744FDFF
:102F6000322001F05BF801210720FEF73DFD012131
:102F70001720FEF739FD322001F050F84FF4BD5113
:102F80001020FEF731FD40F217211120FEF72CFD35
:102F90004FF48F711220FEF727FD4FF4706113205C
:102FA000FEF722FD00212A2000E093E0FEF71CFD41
:102FB0000A212920FEF718FD4FF49F711220FEF719
:102FC00013FD00215020FEF70FFDEF215120FEF7E9
:102FD0000BFD00215220FEF707FD40F23F11532068
:102FE000FEF702FD4FF41C516020FEF7FDFC0121AD
:102FF0006120FEF7F9FC00216A20FEF7F5FC0021B4
:103000008020FEF7F1FC00218120FEF7EDFC00217D
:103010008220FEF7E9FC00218320FEF7E5FC002179
:103020008420FEF7E1FC00218520FEF7DDFC132162
:103030009020FEF7D9FC4FF440719220FEF7D4FCAB
:1030400005219320FEF7D0FC00219520FEF7CCFC53
:1030500000219720FEF7C8FC00219820FEF7C4FC51
:103060004FF480710120FEF7BFFC4FF4E0610220B5
:10307000FEF7BAFC41F230010320FEF7B5FC002157
:103080000420FEF7B1FC00210C20FEF7ADFC00216E
:103090000F20FEF7A9FC00212020FEF7A5FC00214F
:1030A0002120FEF7A1FC21210720FEF79DFC142022
:1030B00000F0B4FF61210720FEF796FC142000F019
:1030C000ADFF40F273110720FEF78EFC142000F0D4
:1030D000A5FF68E472480088A0F5354105397DD127
:1030E0000846FEF781FC00210846FEF77DFC002122
:1030F0000846FEF779FC00210846FEF775FC012121
:10310000A420FEF771FC142000F088FF4FF41C513E
:103110006020FEF769FC40F202210820FEF764FC03
:103120004FF405713020FEF75FFC43F2157131203A
:10313000FEF75AFC40F204613220FEF755FC40F6DF
:1031400016613320FEF750FC42F211213420FEF7C5
:103150004BFC4FF4A8513520FEF746FC48F20751CE
:103160003620FEF741FC41F207413720FEF73CFCD8
:1031700041F203413820FEF737FC20213920FEF7C9
:1031800033FC1A219020FEF72FFC00211020FEF7BF
:103190002BFC07211120FEF727FC00211220FEF74F
:1031A00023FC00211320FEF71FFC142000F036FF43
:1031B0004FF4E6611020FEF717FC40F237111120A2
:1031C000FEF712FC142000F029FF4FF4DC711220EE
:1031D000FEF70AFC142000F021FF00E086E04FF427
:1031E00070611320FEF700FC80212A20FEF7FCFB13
:1031F00048212920FEF7F8FB142000F00FFF4FF4C0
:1032000080710120FEF7F0FB4FF4E0610220FEF731
:10321000EBFB41F230210320FEF7E6FB40F20221F6
:103220000820FEF7E1FB00210A20FEF7DDFB00216C
:103230000C20FEF7D9FB00210D20FEF7D5FB302135
:103240000E20FEF7D1FB00215020FEF7CDFBEF2131
:103250005120FEF7C9FB00215220FEF7C5FB40F2CA
:103260003F115320FEF7C0FB4FF41C516020FEF7C6
:10327000BBFB01216120FEF7B7FB00216A20FEF7AE
:10328000B3FB11219020FEF7AFFB4FF4C0619220F9
:10329000FEF7AAFB40F202419320FEF7A5FB01E0F6
:1032A0008800002002219420FEF79EFB142000F0ED
:1032B000B5FE01210720FEF797FB142000F0AEFEBB
:1032C00061210720FEF790FB40F273110720FEF703
:1032D0008BFB00212020FEF787FB00212120FEF739
:1032E00083FB22210020FEF77FFB12E3FF480088CA
:1032F000A0F5454105397DD10846FEF775FB002153
:103300000846FEF771FB142000F088FE00210846F5
:10331000FEF76AFB00210846FEF766FB002108461F
:10332000FEF762FB00210846FEF75EFB0121A420A8
:10333000FEF75AFB142000F071FE4FF41C51602080
:10334000FEF752FB40F606010820FEF74DFB40F267
:1033500003713020FEF748FB01213120FEF744FBCA
:1033600004213220FEF740FB4FF481713320FEF739
:103370003BFB4FF440713420FEF736FB40F2031163
:103380003520FEF731FB1F213620FEF72DFB40F2E2
:1033900003713720FEF728FB01213820FEF724FBBC
:1033A00004213920FEF720FB15219020FEF71CFB9D
:1033B0004FF482611020FEF717FB40F247211120E5
:1033C000FEF712FB4FF4DE711220FEF70DFB4FF4F7
:1033D00060611320FEF708FB782000F01FFE4FF419
:1033E00080710120FEF700FB4FF400710220FEF710
:1033F000FBFA00E050E041F230010320FEF7F4FA5E
:1034000008210A20FEF7F0FA00210C20FEF7ECFA62
:1034100020210E20FEF7E8FA00210F20FEF7E4FA43
:1034200000212020FEF7E0FA00212120FEF7DCFA3F
:103430003D212A20FEF7D8FA142000F0EFFD2D21BF
:103440002920FEF7D1FA00215020FEF7CDFA4DF2E7
:10345000EF015120FEF7C8FA00215220FEF7C4FA0E
:1034600040F23F115320FEF7BFFA00216120FEF722
:10347000BBFA00216A20FEF7B7FA4FF440719220A0
:10348000FEF7B2FA05219320FEF7AEFA4FF48071F1
:103490000720FEF7A9FA3CE294480088A0F509410C
:1034A00089397DD101210020FEF79EFA4AF6A40158
:1034B0000320FEF799FA00210C20FEF795FA40F65A
:1034C0000C010D20FEF790FA4FF42C510E20FEF760
:1034D0008BFAB0211E20FEF787FA42F63F31012019
:1034E000FEF782FA4FF4C0610220FEF77DFA002158
:1034F0001020FEF779FA46F270011120FEF774FAF7
:1035000000210520FEF770FA00210620FEF76CFA74
:103510004EF61C711620FEF767FA03211720FEF7FE
:1035200063FA40F233210720FEF75EFA00210B20F8
:10353000FEF75AFA00210F20FEF756FA002141202B
:10354000FEF752FA00214220FEF74EFA00214820F1
:10355000FEF74AFA40F23F114920FEF745FA0021F2
:103560004A20FEF741FA00214B20FEF73DFA4FF4C6
:103570006F414420FEF738FA00214520FEF734FA67
:1035800040F23F114620FEF72FFA40F2077130203B
:10359000FEF72AFA4FF401713120FEF725FA00E018
:1035A0003DE04FF401713220FEF71EFA40F2025165
:1035B0003320FEF719FA40F207513420FEF714FACF
:1035C0004FF401713520FEF70FFA4FF401713620E8
:1035D000FEF70AFA40F202513720FEF705FA40F2F0
:1035E00002313A20FEF700FA40F202313B20FEF7AA
:1035F000FBF900212320FEF7F7F900212420FEF734
:10360000F3F94FF400412520FEF7EEF900214F2099
:10361000FEF7EAF900214E20FEF7E6F979E133489A
:103620000088A0F58A4131397ED101210020FEF7C2
:10363000DBF90A2000F0F2FC41F228611020FEF7CD
:10364000D3F90E211220FEF7CFF940F639211320CD
:10365000FEF7CAF90A2000F0E1FC40211120FEF734
:10366000C3F950211520FEF7BFF90A2000F0D6FC5F
:103670001E211220FEF7B8F90A2000F0CFFC4FF40B
:10368000B1511020FEF7B0F942F639211320FEF7B0
:10369000ABF90A2000F0C2FC4FF480710120FEF764
:1036A000A3F94FF440710220FEF79EF941F2300178
:1036B0000320FEF799F940F202210820FEF794F961
:1036C00008210A20FEF790F900213020FEF78CF93E
:1036D00040F202413120FEF787F94FF48371322026
:1036E000FEF782F940F20351332001E08800002008
:1036F000FEF77AF94FF482713420FEF775F940F243
:1037000001313520FEF770F940F207713620FEF7DF
:103710006BF940F205313720FEF766F94FF402717C
:103720003820FEF761F900E03EE040F60B713920E9
:10373000FEF75AF902214120FEF756F94FF41C51C9
:103740006020FEF751F901216120FEF74DF94FF499
:1037500004719020FEF748F94FF485719220FEF72E
:1037600043F904219320FEF73FF94FF48071A02024
:10377000FEF73AF901210720FEF736F9212107204B
:10378000FEF732F923210720FEF72EF93321072017
:10379000FEF72AF940F233110720FEF725F9002140
:1037A000A020FEF721F9B4E0F9480088A0F58A418D
:1037B0003539F8D130211520FEF716F910219A205D
:1037C000FEF712F920211120FEF70EF943F22841ED
:1037D0001020FEF709F902211220FEF705F941F247
:1037E00038011320FEF700F9282000F017FC122101
:1037F0000846FEF7F9F8282000F010FC43F22041BB
:103800001020FEF7F1F843F238011320FEF7ECF830
:10381000462000F003FC00213020FEF7E5F840F2DE
:1038200002413120FEF7E0F840F207313220FEF786
:10383000DBF84FF441713320FEF7D6F80421342031
:10384000FEF7D2F840F201413520FEF7CDF840F204
:1038500007713620FEF7C8F840F205313720FEF731
:10386000C3F84FF4C2613820FEF7BEF84FF4C261CE
:103870003920FEF7B9F84FF480710120FEF7B4F853
:103880004FF440710220FEF7AFF841F230010320FF
:10389000FEF7AAF840F608010820FEF7A5F808216F
:1038A0000A20FEF7A1F84FF41C516020FEF79CF8A7
:1038B00001216120FEF798F84FF49F719020FEF7E8
:1038C00093F84FF480719220FEF78EF84FF48071D8
:1038D0009320FEF789F84FF44051A020FEF784F8BA
:1038E0001021A320FEF780F801210720FEF77CF8C5
:1038F00021210720FEF778F823210720FEF774F82E
:1039000033210720FEF770F840F233110720FEF74D
:103910006BF80020FEF75EF901209E4908604FF623
:10392000FF70FEF7CCFA08BD2DE9F05F04460D46A6
:1039300016461F46DDF828804FF0000B0020FEF7EA
:1039400049F9301B401C1FFA80FBA94620E049467C
:10395000204601F0DFFCFEF763F84FF0000A11E0AB
:103960004FF480708C490861400048618B48C0F872
:103970000C8C802048610861800008610AF1010018
:103980001FFA80FADA45EBDB09F101001FFA80F932
:10399000B945DCDD0020FEF71DF9BDE8F09F2DE9FB
:1039A000FF4F85B004460D46164600200490039054
:1039B000A6EB04080898A0EB0509A3460095B8F10A
:1039C000000F02DD012001900AE0B8F1000F02D1E2
:1039D0000020019004E04FF0FF300190C8F1000892
:1039E000B9F1000F02DD4FF0010A09E0B9F1000F53
:1039F00002D14FF0000A03E04FF0FF3AC9F100098D
:103A0000C84502DDCDF8088001E0CDF80890002718
:103A100022E0009881B21FFA8BF0FEF736FA049884
:103A200040440490039848440390029904988842C3
:103A300005DD04990298081A049001988344DDE991
:103A40000210884206DDDDE90210401A039000985A
:103A500050440090781C87B20298401C8742D8DD01
:103A600009B0BDE8F08F2DE9F04104460D46164639
:103A70001F462B46324629462046FFF790FF3B461D
:103A8000224629462046FFF78AFF3B463246394602
:103A90002046FFF784FF3B46324629463046FFF773
:103AA0007EFFBDE8F0812DE9F04704460D4616463D
:103AB0000027B0460320A0EB460954E0EA1B91B270
:103AC000A4EB080290B2FEF7E0F9EA1B91B204EB16
:103AD000080290B2FEF7D9F905EB080291B2E21B99
:103AE00090B2FEF7D2F9EA1B91B2A4EB080290B2B1
:103AF000FEF7CBF9A5EB080291B2E21B90B2FEF7FC
:103B0000C4F9EA1991B204EB080290B2FEF7BDF9CC
:103B1000A5EB080291B2E21990B2FEF7B6F905EBF7
:103B2000080291B2E21990B2FEF7AFF9EA1991B228
:103B3000A4EB080290B2FEF7A8F97F1CB9F1000FC0
:103B400003DAB800801D814406E0A7EB080080007E
:103B50000A308144A8F1010805EB080291B2E2198C
:103B600090B2FEF792F94745A8DDBDE8F0872DE950
:103B7000F84F04460D4616461F46A34608480088DF
:103B80000090E82C02DCB5F59C7F0BDDBDE8F88FDA
:103B900088000020A80122420010014000000140DE
:103BA00084000020A6F12000C6B20A98002839D16E
:103BB000814634E00C2F07D106EB4600F94901EBB2
:103BC000800010F8098004E0F74800EB061010F8B8
:103BD00009804FF0000A16E018F0010F03D0F349F6
:103BE0000098088003E0F2480088F04908802946E0
:103BF0002046FEF74AF94FEA6808601C84B20AF1D1
:103C0000010000F0FF0A07EBD771BAEB610FE3DBAD
:103C10005C46681C85B209F1010000F0FF09B94556
:103C2000C8DB30E04FF000092BE00C2F07D106EB8A
:103C30004600DC4901EB800010F8098004E0DA4816
:103C400000EB061010F809804FF0000A10E018F0A1
:103C5000010F07D005EB090291B204EB0A0290B202
:103C6000FEF713F94FEA68080AF1010000F0FF0AB5
:103C700007EBD771BAEB610FE9DB09F1010000F046
:103C8000FF09B945D1DBC949009808807EE710B526
:103C90000246012000E050430B00A1F10104E1B213
:103CA000F9D110BD2DE9FF4F81B0044615461E46DF
:103CB0000E9F4FF0000AD0463EE0A6EB0800401EE3
:103CC000C1B20A20FFF7E3FFB5FBF0F00A21B0FB19
:103CD000F1F201FB120000F0FF09BAF1000F16D15A
:103CE000701E404513DDB9F1000F0ED10023BB4615
:103CF00007EBD771491001FB084188B200933B469E
:103D000020220299FFF733FF12E04FF0010A00234F
:103D1000BB4607EBD771491001FB084188B20093FD
:103D20003B4609F13001CAB20299FFF720FF00BFFC
:103D300008F1010000F0FF08B045BEDB05B0BDE8AA
:103D4000F08F2DE9F84F04460D4616461F46DDF864
:103D500028804FF0000923E0A7EB0900401EC1B204
:103D60000A20FFF794FFB6FBF0F00A21B0FBF1F256
:103D700001FB120000F0FF0A0B9BC34608EBD87151
:103D8000491001FB094188B2009343460AF1300112
:103D9000CAB22946FFF7EBFE09F1010000F0FF0966
:103DA000B945D9DBBDE8F88F2DE9F84F04460D463B
:103DB00016461F46DDE90A89A246301986B27819EF
:103DC00087B219E0B44203DB544605EB080085B224
:103DD000BD4200DB18E00023009399F80020434621
:103DE00029462046FFF7C3FE404608EBD87104EB96
:103DF00061018CB209F1010999F800007E2803DC09
:103E000099F800002028DDDA00BFBDE8F88FF8B58A
:103E100004460D4616461BE0E82C03DD002405F1A0
:103E2000100085B2B5F59C7F06DD002004460546EE
:103E30004FF6FF70FEF743F800230093327810230B
:103E400029462046FFF793FE04F1080084B2761C51
:103E500030780028E0D1F8BD2DE9F05F04460D462A
:103E60001646A3464FF0000845E04FEA48404FEAA7
:103E7000104A504800EB461010F80A704FF0000945
:103E80000EE017F0800F03D029462046FDF7FDFF16
:103E90007804070C601C84B209F101001FFA80F954
:103EA000B9F1080FEDDB434800EB46110AF10100C0
:103EB0000F5C4FF0000916E017F0800F03D0294681
:103EC0002046FDF7E2FF7804070C601C84B2A4EBE7
:103ED0000B00102803D15C46681C85B206E009F18E
:103EE00001001FFA80F9B9F1080FE5DB00BF08F106
:103EF00001001FFA80F8B8F1100FB6DBBDE8F09FA3
:103F0000F8B504460D461646002E08DAA81D83B201
:103F1000601C82B2A81D81B22046FFF740FD301E12
:103F200001DB014600E041420E460A2096FBF0F715
:103F30000C23009303233A462946A01C80B2FFF7C6
:103F4000B1FE05F1090081B204F1140080B2FDF761
:103F50009CFF05F1090081B204F1130080B2FDF766
:103F600094FF05F10A0081B204F1140080B2FDF75C
:103F70008CFF05F10A0081B204F1130080B2FDF755
:103F800084FF0A2096FBF0F100FB11670C230093DD
:103F900001233A46294604F1150080B2FFF782FE5C
:103FA000F8BD00006C5D0008E0610008840000209E
:103FB00086000020D067000808B50121202000F00D
:103FC0003DFD0C20ADF8000010208DF8030003200B
:103FD0008DF802006946064800F086FA042104487C
:103FE00000F02AFB0821024800F026FB08BD000073
:103FF0000014014010B504466FF0040000F05EF9B3
:10400000E11704EB5171C9101F4A11701046007876
:104010004FF47A714843911C088010BD1A4A921CD3
:10402000128842434FF0E0235A6100229A61012234
:104030001A6100BF4FF0E022116911F0010F02D0A8
:1040400011F4803FF6D000224FF0E0231A619A610C
:1040500070470D4A127842434FF0E0235A61002224
:104060009A6101221A6100BF4FF0E022116911F03C
:10407000010F02D011F4803FF6D000224FF0E02370
:104080001A619A61704700008A00002010B54FF451
:10409000A06000F0C1F810BD014600BF704700BF2E
:1040A000494A128812F0400FFAD0C2B2464B1B1D8B
:1040B0001A80704710B586B00446012144F205000D
:1040C00000F0BCFC4FF40070ADF8140003208DF834
:1040D000160018208DF8170005A93C4800F004FAD6
:1040E0004FF48060ADF8140004208DF8170005A986
:1040F000364800F0F9F925208DF8000003208DF8EE
:1041000001008DF8020001208DF80300684600F0E0
:1041100088F801940020ADF80800ADF80A00ADF869
:104120000C00ADF810000C20ADF80E0001A92648D7
:1041300000F029FD012240F22551234800F0BAFD8C
:104140000121214800F0AAFD06B010BD10B540F2D3
:1041500025511D4800F095FE002834D01A4800F083
:1041600010FEC4B21A48007810F0800F2BD1184806
:10417000007810F0400F0CD00A2C03D00020144916
:10418000087020E01248007840F080001049087064
:1041900019E00D2C06D10E48007840F040000C4983
:1041A000087010E00A48007800F03F0009490C54FC
:1041B00007480078401C06490870084600783F28E8
:1041C00001DD0020087010BD0038014000080140EA
:1041D00090000020B50000200948804709480047AA
:1041E000FEE7FEE7FEE7FEE7FEE7FEE7FEE7FEE7A7
:1041F000FEE7FEE704480549054A064B7047000004
:10420000250A0008ED00000858010020580700208A
:10421000580300205803002032490143324A1160FC
:10422000704770B5002100230F22C4780CB32E4CC8
:10423000246804F4E064C4F5E064210AC1F10403D5
:10424000CA40447804FA03F18478144021430901F8
:10425000264C0678A155047804F01F050124AC40D3
:1042600005786D114FF0E02606EB8505C5F8004195
:1042700009E0047804F01F040125A5401C4C0678D1
:10428000761144F8265070BD1A4A0A400243164B74
:104290001B1F1A60704741B1134A121D1268024376
:1042A0004FF0E023C3F8102D07E00F4A121D1268EB
:1042B00082434FF0E023C3F8102D7047042808D143
:1042C0004FF0E021096941F004014FF0E022116153
:1042D00007E04FF0E021096921F004014FF0E022EE
:1042E000116170470000FA050CED00E000E400E009
:1042F00080E100E080FFFF1F002048490860484936
:10430000C1F80404454908310860091D08604548A2
:104310004249143108607047002140498279002ADF
:1043200040D03F4AD2F8002403689A433C4BC3F87C
:1043300000241A46D2F8042403689A430B1D1A601D
:10434000027911440A6803681A430A60344AD2F8B1
:10435000082403689A43324BC3F808241A46D2F85B
:104360000C2403689A432D4B0C331A604279102AAF
:1043700010D12B4AD2F8082403681A43284BC3F8FB
:1043800008241A46D2F80C2403681A43244BC3F8B5
:104390000C240DE02149427911440A6803681A434C
:1043A0000A6005E0027911440A6803689A430A60CA
:1043B00070470021016001710C2141710021817160
:1043C00070471649103109680143154AC2F81014A4
:1043D000704701460020114A143212680A4201D087
:1043E000012000E0002070470C491431086070473C
:1043F000014600200022094B1B6803EA0102084B1A
:10440000D3F814340B4202D00AB1012000E000209E
:1044100070470249143108607047000000040140F1
:1044200000000140FFFF0F0010B50446C74884425A
:1044300008D10121042000F01BFB0021042000F022
:1044400017FB46E0C248844208D10121082000F051
:104450000FFB0021082000F00BFB3AE0BD4884422E
:1044600008D10121102000F003FB0021102000F0F2
:10447000FFFA2EE0B848844208D10121202000F044
:10448000F7FA0021202000F0F3FA22E0B34884423A
:1044900008D10121402000F0EBFA0021402000F07B
:1044A000E7FA16E0AE48844208D10121802000F0EE
:1044B000DFFA0021802000F0DBFA0AE0A9488442FC
:1044C00007D10121801500F0D3FA0021A01500F0DA
:1044D000CFFA10BD10B50121084600F0C9FA00213D
:1044E000012000F0C5FA10BDF0B500220023002421
:1044F00000250026002791F803C00CF00F0291F868
:1045000003C01CF0100F03D091F802C04CEA020265
:10451000B1F800C01CF0FF0F31D0066800242BE07A
:104520004FF0010C0CFA04F5B1F800C00CEA0503D9
:10453000AB4220D1A5004FF00F0C0CFA05F7BE439B
:1045400002FA05FC4CEA060691F803C0BCF1280FFC
:1045500006D14FF0010C0CFA04FCC0F814C00AE0BC
:1045600091F803C0BCF1480F05D14FF0010C0CFAD3
:1045700004FCC0F810C0641C082CD1D30660B1F84C
:1045800000C0BCF1FF0F34DD466800242EE004F1CA
:10459000080C4FF0010E0EFA0CF5B1F800C00CEA51
:1045A0000503AB4221D1A5004FF00F0C0CFA05F723
:1045B000BE4302FA05FC4CEA060691F803C0BCF1C2
:1045C000280F05D104F1080C0EFA0CFEC0F814E017
:1045D00091F803C0BCF1480F07D104F1080C4FF06B
:1045E000010E0EFA0CFEC0F810E0641C082CCED3AD
:1045F0004660F0BD4FF6FF710180022181700421F9
:10460000C17070470246002093680B4201D0012020
:1046100000E0002070470146886880B2704702467B
:104620000020D3680B4201D0012000E00020704739
:104630000146C86880B270470161704741617047A8
:104640000AB1016100E041617047C16070474FF4F9
:1046500080320A4382618161826182698269704726
:104660000022414B1A684FF680731A4042EA00124A
:104670000A433D4B1A6070473C49C8617047F0B52A
:10468000002200230024002500F00046B6F1004F70
:1046900002D1354EF46901E0334E7468C0F303452E
:1046A00082B200F44016B6F5401F08D124F07064C1
:1046B0002D4E766826F070662B4F7E6012E000F477
:1046C0008016B6F5801F06D1032606FA05F39C4333
:1046D00044F0706406E0460D360102FA06F6B44373
:1046E00044F0706421B1460D360102FA06F63443F7
:1046F00000F00046B6F1004F02D11B4EF46101E01C
:10470000194E7460F0BD30B500228B071C0F0F23CB
:1047100003FA04F2144B08338C1053F824409443EA
:104720008D1043F825408C1053F824308C07240F4B
:1047300000FA04F423430C4C08348D1044F825305F
:1047400030BD0A49DC3108607047000000080140B4
:10475000000C01400010014000140140001801400D
:10476000001C0140002001400000014000002042E8
:10477000DB48006840F00100D949086008464068FD
:10478000D8490840D649486008460068D6490840DC
:10479000D34908600846006820F480200860084675
:1047A000406820F4FE0048604FF41F0088607047A6
:1047B000CB49096821F48031C94A11601146096862
:1047C00021F480211160B0F5803F03D0B0F5802F37
:1047D0000ED106E0C249096841F48031C04A116037
:1047E00007E0BF49096841F4A021BD4A116000E01B
:1047F00000BF00BF704710B5014600220023002013
:104800004A11012A02D1B64C236806E0022A02D1DD
:10481000B34C236A01E0B24C636A01F01F02012429
:1048200094401C4201D0012000E0002010BD70B572
:1048300000240025002600BF3120FFF7DCFF0646DC
:10484000641CB4F5A06F01D0002EF5D03120FFF725
:10485000D2FF08B1012500E00025284670BD0021E7
:104860009F4A116821F0F80141EAC00111607047C8
:104870009E49086070470022994B5A6822F47C12C6
:1048800040EA01031A43964B5A60704797490866FD
:1048900070470021924A516821F0030101435160A1
:1048A00070478F48406800F00C00704700218C4A28
:1048B000516821F0F0010143516070470021884A9E
:1048C000516821F4E0610143516070470021844A3E
:1048D000516821F4605141EAC0015160704729B12B
:1048E0007F4A527A02437E4B5A7206E07C4A527AE1
:1048F000C343DBB21A407A4B5A7270477B49D831B6
:10490000086070470021764A516821F44041014314
:10491000516070470021724A20321170704A82F84B
:104920002010012802D004280AD104E001216C4A99
:104930002032117005E00521694A2032117000E033
:1049400000BF00BF70476A49086070476449096A40
:104950000143634A116270476549443908607047F2
:1049600030B500210022002300245D4D6D6805F064
:104970000C0121B1042905D0082923D105E05D4DA2
:10498000056022E05B4D05601FE0554D6D6805F444
:104990007012534D6D6805F48033022505EB924289
:1049A0001BB9554D554305600BE04D4D6D6815F431
:1049B000003F03D0504D5543056002E04D4D554337
:1049C000056002E04B4D056000BF00BF444D6D68BF
:1049D00005F0F0010909494D6C5C0568E54045604A
:1049E0003F4D6D6805F4E061090A444D6C5C456813
:1049F000E54085603A4D6D6805F46051C90A3F4D48
:104A00006C5C4568E540C560354D6D6805F4404116
:104A1000890B3A4D10356C5CC568B5FBF4F5056142
:104A200030BD29B12E4A526902432D4B5A6104E030
:104A30002B4A526982432A4B5A61704729B1284A4E
:104A400092690243264B9A6104E0254A92698243A7
:104A5000234B9A61704729B1214AD2690243204B06
:104A6000DA6104E01E4AD26982431D4BDA61704765
:104A700029B11B4AD2680243194BDA6004E0184A94
:104A8000D2688243164BDA60704729B1144A126922
:104A90000243134B1A6104E0114A12698243104B1E
:104AA0001A61704712494039086070470F49C8645D
:104AB00070470B49C87170470948406A40F08070E0
:104AC00007494862704701460020054A92680A4239
:104AD00001D0012000E00020704701498872704732
:104AE000001002400000FFF8FFFFF6FE0000424207
:104AF0008004424200127A0000093D009800002024
:104B000010B50446FB48844209D101218803FFF710
:104B1000AFFF00214FF48040FFF7AAFF32E0F648D4
:104B2000844209D101214804FFF7AFFF00214FF46F
:104B30000030FFF7AAFF25E0F048844209D10121A7
:104B40008804FFF7A2FF00214FF48020FFF79DFFAC
:104B500018E0EB48844209D10121C804FFF795FF12
:104B600000214FF40020FFF790FF0BE0E54884425E
:104B700008D101210805FFF788FF00214FF48010BC
:104B8000FFF783FF10BD2DE9F04786B004460D46C0
:104B90000026002700BFB146B246A88900B100BF79
:104BA000A246268A4CF6FF700640E8880643268215
:104BB000A6894EF6F3100640A8882989084369891A
:104BC00008430643A681A68A4FF6FF400640A889FF
:104BD0000643A68201A8FFF7C3FE5446C548824596
:104BE00001D1049F00E0039FA08910F4004F08D07A
:104BF00007EBC70000EB071029684900B0FBF1F88C
:104C000007E007EBC70000EB071029688900B0FB3D
:104C1000F1F86420B8FBF0F006013009642101FBD3
:104C20001089A08910F4004F09D0322101EBC9008E
:104C30006421B0FBF1F000F00700064308E03221E8
:104C400001EB09106421B0FBF1F000F00F00064306
:104C5000268106B0BDE8F0874FF4165101600021AF
:104C60008180C18001810C214181002181817047B7
:104C700010B50022028A4FF2FF031A400B884C88BD
:104C800023438C882343CC8823431A43028210BDDC
:104C90000021018041808180C180704721B18289DB
:104CA00042F40052828104E082894DF6FF731A407B
:104CB00082817047F0B50024002500260023A1F56D
:104CC00010676A3F00D100BF0346C1F3421401F0F0
:104CD0001F05012707FA05F6012C01D10C3304E06A
:104CE000022C01D1103300E014331AB11F6837438E
:104CF0001F6002E01F68B7431F60F0BD10B51AB116
:104D0000838A0B43838204E0838ACC43A4B223408A
:104D1000838210BD028A4FF6F0731A400282028A23
:104D20000A430282704782894FF2FF731A408281E0
:104D300082890A438281704721B1828942F002024E
:104D4000828104E082894FF6FD731A4082817047A8
:104D5000028A4FF6DF731A400282028A0A430282F5
:104D6000704721B1028A42F48042028204E0028A42
:104D70004BF6FF731A4002827047C1F3080282802B
:104D8000704701468888C0F308007047818941F068
:104D9000010181817047028BD2B20283028B42EA09
:104DA000012202837047028B02F47F420283028B4E
:104DB0000A430283704721B1828A42F02002828234
:104DC00004E0828A4FF6DF731A408282704721B175
:104DD000828A42F01002828204E0828A4FF6EF73E8
:104DE0001A408282704721B1828A42F00802828290
:104DF00004E0828A4FF6F7731A408282704721B12D
:104E0000828942F40042828103E08289C2F30E0269
:104E10008281704721B1828A42F40062828204E07A
:104E2000828A4FF2FF731A4082827047828A4FF65D
:104E3000FB731A408282828A0A438282704721B1C0
:104E4000828A42F00202828204E0828A4FF6FD7377
:104E50001A408282704702460020B1F5007F00D1DF
:104E600000BF13880B4201D0012000E000207047F2
:104E700001F40072B2F5007F00D100BFCA43028086
:104E8000704770B502460023002400250020A1F5DC
:104E900010666A3E00D100BFC1F3421501F01F0445
:104EA000012606FA04F4012D02D19689344006E069
:104EB000022D02D1168A344001E0968A34400B124A
:104EC000012606FA03F31688334014B10BB1012012
:104ED00000E0002070BD10B500220023A1F5106491
:104EE0006A3C00D100BF0A1201249440A3B2DC4303
:104EF000048010BD003801400044004000480040DC
:104F0000004C004000500040704700000FB4054ABC
:104F1000054910B503AB7944029800F0ACF910BC18
:104F20005DF814FB9400002085F1FFFF0FB40849E1
:104F30001CB506AB6A4679440090059800F09BF9D1
:104F40000020694600F0AAF91CBC5DF814FB0000C3
:104F50006303000070B50446856900683026C10609
:104F600000D42026C00709D106E0D4E9012130464B
:104F70009047206A401C20626D1EF6D570BD70B54A
:104F8000044685690068C00709D006E0D4E901211C
:104F900020209047206A401C20626D1EF6D570BD0F
:104FA0002DE9F0418046002610687529414614A578
:104FB00011D0AFF30080002802DA404211A508E0CA
:104FC000D8F800108A0701D50FA502E0490704D5DB
:104FD0000EA5012601E0AFF30080002408F12407AC
:104FE00004E000F060F930313955641C0028F8D134
:104FF00033462A4621464046BDE8F04100F0DEB87F
:10500000000000002D0000002B0000002000000028
:1050100070B504460D4621461068AFF30080216844
:10502000090502D5104A7A4402E00F4A7A440E324A
:10503000002104F1240306E000F00F064FEA1010EF
:10504000965D5E54491C0028F6D1206800230007B5
:1050500004D5702D02D009B1113202232046BDE8DB
:10506000704000F0ABB80000261D00002DE9F05F95
:105070004FF0000B044689464FF0010AC0F820B0FB
:105080002046E168884700287DD0252802D0D4E951
:10509000012185E0464F00267F442046E16888478D
:1050A0002028054607DB312D05D2781910F8200C91
:1050B00008B10643F1E7B00701D526F00406C4F8AD
:1050C0001CB00027C4F818B02A2D10D1204659F87A
:1050D000041B04EB87029161E1688847012F0546B4
:1050E00028D1E069002830DA26F020062DE0A5F16D
:1050F000300052460A2801461AD2CAB104EB870092
:1051000092468046816108E0D8F8180000EB8000E4
:1051100005EB40003038C8F818002046E1688847A1
:1051200005465046A5F130010A2901D20028EBD1ED
:10513000012F0AD02E2D08D12046E16888477F1C18
:105140000546022F46F02006BEDBA069002803DAE0
:10515000404246F00106A061F00701D026F010069B
:105160008DB1A5F14100192802D8203546F400661A
:105170004A462946204626604E46FAF7F1FF60B1BE
:10518000012804D100E010E006F1040978E7F61DDB
:1051900026F0070000F1080972E7D4E9012128464A
:1051A0009047206A401C20626AE7206ABDE8F09FB1
:1051B000DC1C000070477047704770472DE9F047CE
:1051C0000D4604469246994600F124080168880677
:1051D00004D5E06921F01001216000E001200027E2
:1051E000A84200DD471BA1697A1902EB0900081AE1
:1051F000A0612068C00602D42046FFF7ABFE00265F
:1052000008E0D4E901211AF806009047206A401C02
:10521000761C20624E45F4DB2068C0060AD5204685
:10522000FFF798FE06E0D4E9012130209047206A7C
:10523000401C2062381EA7F10107F4DC07E0D4E926
:10524000012118F805009047206A401C2062281EA2
:10525000A5F10105F3DC2046FFF791FE216802204D
:10526000090600D40120BDE8F087000001694A1C4E
:1052700002610878704710B50C46194690B0CDE928
:10528000024200220692044A7A44CDE9042001A891
:10529000FFF7ECFE10B010BDE1FFFFFF0A6802F857
:1052A000010B0A6070474FF00A01B0FBF1F202FBFC
:1052B000110110467047754600F028F8AE4605000B
:1052C0006946534620F00700854618B020B5FEF722
:1052D00091FFBDE820404FF000064FF000074FF06F
:1052E00000084FF0000B21F00701AC46ACE8C00904
:1052F000ACE8C009ACE8C009ACE8C0098D4670470D
:105300000446AFF300802046FAF741FF004870479B
:10531000F800002030B504460D462F480088A0F55F
:105320000941893908D121464E20FCF75DFB294609
:105330004F20FCF759FB4DE027480088A0F51341AA
:1053400041393FD12A20FCF70DFB4FF480702349EF
:1053500008614000486120122149086080201F49EF
:1053600048610861800008614010086140004861A0
:10537000E0B21C49C1F80C0C802018494861086152
:10538000800008612B20FCF7EDFA4FF48070134980
:1053900008614000486128121149086080200F49C7
:1053A0004861086180000861401008614000486160
:1053B000E8B20B4908608020084948610861800014
:1053C000086107E021462020FCF70EFB294621203A
:1053D000FCF70AFB30BD00008800002000100140EF
:1053E0000C0C01400000014002494FF0000000F0A9
:1053F00073BC00000000F87F02494FF0000000F08D
:105400006BBC00000000F87F00B54FF4001E1EEBDF
:10541000410F08BF002898BF1EEB430F08BF002AAA
:1054200026D85DF804EBAFF3008051EA030C06D4F4
:10543000994208BF904210D6EFF3008070478B422C
:1054400008BF8242EFF3008020F0104038BF40F0E8
:10545000004080F3008878BF70474FF0010C38BFE0
:10546000BCF1020F68BFBCF1000FEFF30080704782
:105470005DF804EB1CF4502F3FF4B6AF00F05EBCB7
:1054800070B5DFF8ECC33CEA111418BF3CEA131402
:1054900000F09B8081EA03050CEA111444EAD574FC
:1054A0001CEA131518BF11EA0C1F00F074804FEAB4
:1054B000C1214FEAC32341EA505143EA5253A4EBBE
:1054C000050404F17F7441F0004143F000434FEACA
:1054D000C0204FEAC22200F0A9F846054FEAD020CA
:1054E00003EB244340EA41504FEAD12101EB035240
:1054F00082EAC47116D05FEA460E38BF4FF04046CC
:1055000010D314BF00234FF0004350F1000041F1CD
:10551000000110EAD37F4FF0804620EAD37018BF15
:105520004FF0404691EAC47FDFF848E316D412EA10
:105530000E0F18BF3EEA010E10D070BDE50754BF34
:105540001EF4000F1EF4800F0ABF4FF080464FF08C
:10555000404610F1010041F10001E3E7B4F1806F32
:10556000DEBF01F1C04101F00041002000DC70BD50
:10557000A8BFA1F1C04146F0140CA8BF4CF0805C5C
:10558000BDE870406FF0000041EA500181EA10313F
:105590004FF00000704711EA0C1F00D00AE013EA38
:1055A0000C1F00F03D804FF0000081EA030101F084
:1055B000004170BD6FF0000081EA030141EA500133
:1055C00081EA10314FF0000070BD4FEA410EBEEB92
:1055D0004C1F4FEA430508BF002898BFB5EB4C1F8E
:1055E00008BF002ABDE87040DFF88CC23FF6FCAE71
:1055F000AFF300804FF4001C1CEB410F09D11CEBF2
:10560000430F0FD04B4021F0004148BF41F0004113
:1056100070474FF0000081EA030303F00041704738
:10562000BDE870404FF0000094497047E0B5054672
:1056300010B40C460FF238114FEA430C4FF0010E34
:105640004FEA9C6C51F82CC04FF00001ACFB02609B
:105650004FF00006ECFB0301001841EB0101301A8A
:1056600066EB0101E1FB0C6C4FF00001ACFB02604A
:105670004FF00006ECFB0301001841EB0101301A6A
:1056800066EB0101E1FB0C6C4FF00001ACFB056027
:10569000ECFB0401A2FB0167E3FB006E17EB0E07B6
:1056A0004FF0000EE3FB017E4EF1000EB6197F4174
:1056B0004EEB0E0E764275EB070764EB0E0EECFB1D
:1056C0000E01ACFB07E64FF0000E801941F100011E
:1056D000A2FB0067B619E2FB017EE3FB007E7F417F
:1056E00003FB01EE4EEB0E0E76424FF0000676EB1A
:1056F000070765EB0E0EACFB0E674FF0000E4FEA8E
:10570000857C4FEA9505C01941F1000145EA847591
:1057100049084FEA3000A2FB00677642E2FB017EB7
:10572000E3FB007E7CEB070703FB01EE65EB0E0E4F
:10573000B51A77EB03047EF1000E24BF2E462746F0
:1057400050F1000041F10001012E38BF012F40410E
:1057500041EB010111F0004F18BF022301D0F0BC52
:1057600000BDF0BC4FF00103001841EB010100BD8A
:10577000FCC00FFC830F3EF85F8D89F4F0F0F0F071
:10578000B50373EDEAA00EEA48B4C2E6E3388EE34F
:105790001C3870E0A6C867DDA70D74DAE53594D72C
:1057A000037BC7D4D2200DD2A87464CFCCCCCCCC90
:1057B000E68745CA7C0CCEC77BC865C5C3300CC321
:1057C000C0C0C0C00BFA82BE0B6452BCA28B2EBA02
:1057D000E00217B8B6600BB6B4400BB4C84216B2BC
:1057E000020B2CB05C414CAE849176ACAAAAAAAA5A
:1057F000573FE8A839052FA702B57EA53D0AD7A3D4
:105800002BC337A2A0A0A0A0E765119F9DD8899DBA
:105810009CC0099CD9E7909A511A1F99ED25B4971D
:105820006CDA4F964F09F294C4859A939224499268
:1058300009BCFD90EE23B88F6D35788E08CB3D8D79
:105840008CC0088CFBF2D88A8940AE898888888809
:105850005FAB67877D8A4B86530834854208218475
:10586000976E128382200882080402810000008063
:105870000000FF070000F07F140000040000F87F24
:105880004FEAC12303B40A1543EA505318BF43F04B
:1058900000430CD4A2F56072D2F19E0211DBFF2A04
:1058A000CCBF002123FA02F1084602B0704701F193
:1058B000804212F5801F80F204804FF0000002B099
:1058C000704703BCDFF828C0012841EB010313F542
:1058D000001F88BF4CF4803C3FF68EAD3CBF6FEAA2
:1058E000E1707047AFF300806FEAE170704700002D
:1058F000E800020410F0004314BF4142014643F0A7
:105900008043B1FA81FC03F1F87311FA0CF1A3EBB7
:105910000C534FEA415008BF704703EBE121704739
:105920004FF080430146FFF7ECBF000051EA030C43
:1059300017D41CF5801F58BFBCF5801F00F10680EE
:10594000994218BF704708BF9042704707D711F5BA
:10595000801F58BF13F5801F19D4994270478942A0
:1059600070471CF5801F08D5BCF5801FF7D58B420A
:1059700018BF704708BF824270474FF4001C1CEBF1
:10598000410F38BF1CEB430F01D28B427047DFF849
:1059900008C0FFF739BD000019001604DFF8B4C1D4
:1059A00070B53CEA111E18BF3CEA131E00F0A68039
:1059B00081EA03050CEA111E4EEAD57E1CEA131596
:1059C00018BF11EA0C1F00F08F80AE4421EA4C1181
:1059D00023EA4C13AEF17F7E41F4801143F480132F
:1059E000A1FB024CA0FB0365361955EB0C05A1FB8E
:1059F000034C4CF10003A0FB021C16EB0C066541A6
:105A000053F10003094218BF46F001064FF0140C91
:105A1000B3F5007F4CF1000CCCF1200425FA0CF218
:105A200003FA04F141EA020105FA04F026FA0CF245
:105A300040EA02006FF0030242EB2E4216FA04F431
:105A400001EB025585EACE7115D05FEA440C38BFF0
:105A50004FF040440FD308BF43F0004350F1000023
:105A600041F1000110EAD37F4FF0804420EAD37067
:105A700018BF4FF0404415F0004FDFF8DCC017D4DA
:105A800015EA0C0F18BF3CEA010C11D070BD5FEA9B
:105A9000CE7454BF1CF4000F1CF4800F0ABF4FF0EB
:105AA00080444FF0404410F1010041F10001E2E771
:105AB000BEF1806FA2BFA1F1C04144F0130C4CF0C5
:105AC000805CBDE8704006DA4FF0000001F1C04193
:105AD00001F0004170476FF0000041EA500181EA97
:105AE00010314FF0000070474FEACE714FF00000C8
:105AF00070BD4FEACE714FF0000070BD4FEA410516
:105B0000B5EB4C1F4FEA430608BF002898BFB6EB21
:105B10004C1F08BF002ABDE87040DFF840C03FF6C8
:105B200063ACAFF300804FF4001CBCEB410F98BF97
:105B3000BCEB430F0AD84FF0000081EA030101F0EB
:105B4000004141F0FE4141F47001704704494FF0BB
:105B5000000070470000FF070000F07F1300000402
:105B60000000F87F53EA010C17D41CF5801F58BFC2
:105B7000BCF5801F00F106808B4218BF704708BF3C
:105B80008242704707D713F5801F58BF11F5801F59
:105B900019D48B4270479B4270471CF5801F08D573
:105BA000BCF5801FF7D5994218BF704708BF9042D7
:105BB00070474FF4001C1CEB430F38BF1CEB410F28
:105BC00001D29942704783EA010182EA000081EA2A
:105BD000030380EA0202DFF810C083EA010182EACF
:105BE0000000FFF711BC000019001604094248BF6D
:105BF0004CF4803C4FF4C0634FEA115203F10103AF
:105C000021EA025122F400629A1A48BF6FF0FE02A4
:105C100041F48011352A3CD830D0152A1ED3203AC1
:105C20000CD90028C2F1200321FA02F001FA03F294
:105C300018BF42F001024FF0000130E0C2F1000352
:105C400002F1200201FA03F120FA02F241EA020114
:105C500000FA03F208464FF0000120E0C2F12003F1
:105C600010B400FA03F401FA03F320FA02F021FA67
:105C700002F1224610BC43EA000010E050EA013273
:105C80004FF000004FF000014FF0004218BF521CCF
:105C900005E04FF001024FF000014FF000001CF44E
:105CA000803F2CF4803C18BF41F00041124208BFF5
:105CB0007047520003D303D0401C41F100017047EC
:105CC0005FEAAC72F8D4FAD1401C41F1000120F037
:105CD0000100F4E7704770470CF00F03092B08BF71
:105CE000082000F02B800A2B0BD0082B18BF704720
:105CF00008BF1CF0400F0AD04FF000004FF0000129
:105D000070471CF0400F18BF4FF0004070471CF068
:105D1000100F08D020F0704300F07F4242EAD30118
:105D20004FEA4370704700F0604021F07F4242EA42
:105D3000000201F07F4040EA727070471CF4801F3F
:105D400011D01CF4E02F03D06FEACC31490070472A
:105D50004FF04050EFF3008222F0704242EA00021E
:105D600082F3008870474FF0000070470000000089
:105D7000000000000000000000000404040404040B
:105D80000004000000140A0A0000000000000000E7
:105D9000000014143F140A3F0A0A000000041E15F4
:105DA00005060C14150F0400000012150D0A142C22
:105DB0002A1200000000040A0A1E15150936000008
:105DC0000002020100000000000000000020100896
:105DD000080808080810200000020408080808083D
:105DE0000804020000000004150E0E150400000057
:105DF00000000404041F040404000000000000006C
:105E0000000000000002020100000000001F00006E
:105E10000000000000000000000000000002000080
:105E200000100808080404020202010000000E111C
:105E300011111111110E00000000040604040404E5
:105E4000040E000000000E1111080402011F0000E2
:105E500000000E11100C1010110E00000000080CB4
:105E60000A0A091E0818000000001F01010F101087
:105E7000110E000000000E09010F1111110E00009B
:105E800000001F09080404040404000000000E11AF
:105E9000110E1111110E000000000E1111111E1033
:105EA000120E0000000000000400000000040000CA
:105EB000000000000004000000040400002010089E
:105EC0000402040810200000000000001F00001F52
:105ED0000000000000020408102010080402000066
:105EE00000000E11110804040004000000000E114F
:105EF0001915151D011E0000000004040C0A0A1EDD
:105F00001233000000000F12120E1212120F0000C6
:105F100000001E1101010101110E000000000F120E
:105F200012121212120F000000001F120A0E0A02B3
:105F3000121F000000001F120A0E0A0202070000D2
:105F400000001C1201013911120C00000000331274
:105F5000121E12121233000000001F040404040475
:105F6000041F000000003E08080808080809070090
:105F7000000037120A060A0A123700000000070262
:105F800002020202223F000000001B1B1B1B151512
:105F90001515000000003B1216161A1A1217000001
:105FA00000000E1111111111110E000000000F124E
:105FB000120E02020207000000000E11111111174B
:105FC000190E180000000F12120E0A1212370000EC
:105FD00000001E1101060810110F000000001F151F
:105FE00004040404040E0000000033121212121202
:105FF000120C000000003312120A0A0C0404000004
:1060000000001515150E0A0A0A0A000000001B0AF6
:106010000A04040A0A1B000000001B0A0A04040404
:10602000040E000000001F0908040402121F0000F3
:10603000001C04040404040404041C000002020202
:106040000404080808100000000E080808080808E2
:1060500008080E0000040A00000000000000000014
:1060600000000000000000000000003F00040000ED
:10607000000000000000000000000000000C121CE6
:10608000123C000000000302020E1212120E000069
:1060900000000000001C1202021C0000000018108A
:1060A000101C1212123C000000000000000C121E16
:1060B000021C000000003804041E0404041E00003A
:1060C00000000000003C120C021E221C0000030213
:1060D000020E121212370000000004000006040431
:1060E000040E000000000800000C0808080808075B
:1060F00000000302023A0A0E1237000000000704F3
:1061000004040404041F000000000000000F151523
:106110001515000000000000000F121212370000D9
:1061200000000000000C1212120C00000000000021
:10613000000F1212120E020700000000001C1212C3
:10614000121C103800000000001B060202070000AD
:1061500000000000001E020C101E000000000004E1
:10616000040E04040418000000000000001B1212BA
:10617000123C0000000000000037120A0C0400006E
:10618000000000000015150E0A0A000000000000C3
:10619000001B0A040A1B0000000000000037120A5E
:1061A0000C04040300000000001E0804041E00008C
:1061B0000018080808040808080818000808080853
:1061C000080808080808080800060404040804046D
:1061D0000404060002251800000000000000000072
:1061E00000000000000000000000000000000000AF
:1061F0000000000808080808080800001818000037
:1062000000486C24120000000000000000000000A4
:106210000000002424247F1212127F1212120000A8
:106220000000081C2A2A0A0C1828282A2A1C0808F8
:1062300000000022251515152A5854545422000038
:106240000000000C1212120A76252911916E00002E
:10625000000606040300000000000000000000002B
:1062600000402010100808080808081010204000FE
:106270000002040808101010101010080804020092
:106280000000000008086B1C1C6B080800000000E0
:1062900000000000080808087F080808080000003F
:1062A00000000000000000000000000006060403DB
:1062B0000000000000000000FE00000000000000E0
:1062C00000000000000000000000000006060000C2
:1062D0000000804040202010100808040402020042
:1062E0000000001824424242424242422418000068
:1062F000000000080E08080808080808083E00000A
:106300000000003C4242422020100804427E00006F
:106310000000003C4242201820404042221C000065
:10632000000000203028242422227E202078000033
:106330000000007E0202021A26404042221C000099
:10634000000000382402021A2642424224180000AB
:106350000000007E2222101008080808080800002B
:106360000000003C4242422418244242423C0000C9
:10637000000000182442424264584040241C00009F
:1063800000000000000018180000000018180000AD
:1063900000000000000000080000000000080804E1
:1063A00000000040201008040204081020400000F3
:1063B0000000000000007F0000007F0000000000DF
:1063C0000000000204081020402010080402000011
:1063D0000000003C42424640201010001818000007
:1063E0000000001C225A555555552D42221C000014
:1063F0000000000808181414243C224242E7000060
:106400000000001F2222221E22424242221F0000C0
:106410000000007C4242010101010142221C0000F7
:106420000000001F2242424242424242221F00001C
:106430000000003F4212121E12120242423F0000B0
:106440000000003F4212121E121202020207000058
:106450000000003C2222010101712122221C0000C7
:10646000000000E7424242427E42424242E70000D0
:106470000000003E0808080808080808083E000058
:106480000000007C10101010101010101010110FD0
:106490000000007722120A0E0A1212222277000050
:1064A000000000070202020202020202427F000014
:1064B00000000077363636362A2A2A2A2A6B000050
:1064C000000000E346464A4A5252526262470000C8
:1064D0000000001C2241414141414141221C000079
:1064E0000000003F424242423E0202020207000018
:1064F0000000001C2241414141414D53321C6000CB
:106500000000003F4242423E1212222242C70000D7
:106510000000007C4242020418204042423E00003B
:106520000000007F4908080808080808081C000047
:10653000000000E74242424242424242423C0000E6
:10654000000000E742422224241414180808000026
:106550000000006B49494949555536222222000066
:10656000000000E7422424181818242442E7000001
:10657000000000772222141408080808081C0000F4
:106580000000007E2120101008040442423F000059
:1065900000780808080808080808080808087800AB
:1065A00000000202040408080810102020204040C7
:1065B000001E1010101010101010101010101E00DF
:1065C000003844000000000000000000000000004F
:1065D000000000000000000000000000000000FFBC
:1065E000000608000000000000000000000000009D
:1065F000000000000000003C4278444242FC0000E1
:10660000000000030202021A26424242261A00003B
:10661000000000000000003844020202443800007C
:1066200000000060404040784442424264D800008C
:10663000000000000000003C427E0202423C0000DC
:10664000000000F08808087E08080808083E0000DE
:10665000000000000000007C22221C023C42423C60
:10666000000000030202023A4642424242E70000B2
:106670000000000C0C00000E08080808083E00008E
:106680000000003030000038202020202020221E72
:106690000000000302020272120A161222770000A2
:1066A0000000000E0808080808080808083E000056
:1066B000000000000000007F9292929292B70000CA
:1066C000000000000000003B4642424242E700005A
:1066D000000000000000003C42424242423C0000F8
:1066E000000000000000001B26424242221E02075A
:1066F000000000000000007844424242447840E03C
:1067000000000000000000774C040404041F000097
:10671000000000000000007C42023C40423E0000BD
:10672000000000000008083E0808080808300000C3
:1067300000000000000000634242424262DC0000B0
:1067400000000000000000E74224241408080000B4
:1067500000000000000000EB4949555522220000CE
:10676000000000000000007624181818246E0000B5
:1067700000000000000000E7422424141808080765
:10678000000000000000007E22100808447E000087
:1067900000C0202020202010202020202020C00009
:1067A00010101010101010101010101010101010E9
:1067B0000006080808080810080808080808060065
:1067C0000C32C200000000000000000000000000C9
:1067D00008800C88109C30E0538090841084107CDA
:1067E000110001007FFE0100010001000100010015
:1067F00001000104FFFE010002003FFC24242244AA
:106800002FF421043FFC210421042114210800005D
:1068100008000BFE482048204BFE4A224A224A220A
:106820004A225222522A1224202040208020002076
:1068300004200420FFFE0460400031F89108610844
:10684000490809381110E1002104210420FC20002E
:1068500001000100010001000100FFFE01000280B3
:10686000028002400440042008101018200E40044A
:106870000108108C0CC808907FFE40048FE800408F
:1068800000807FFE00800080008000800280010088
:10689000082049202A20083EFF442A44494488A46D
:1068A0001028FE2822104210642818283444C2827E
:1068B000020001007FFE400280041FE000400080D3
:1068C0000100FFFE010001000100010005000200BF
:1068D000100011FE50205C4051FC5104FF240124A3
:1068E0001124552455245544845008883104C2028B
:1068F000020001007FFC020044442F88111022484E
:106900004FE400200100FFFE010001000100010032
:10691000004020401040104000400040F7FE104072
:1069200010401040104010401440184010400040EB
:10693000000800087C08440845FE440844087C0818
:1069400044884448444844087C084408002800100F
:10695000200013FC1004400447C44444444444440D
:1069600047C444444444444447C440044014400899
:1069700000007BFE480051FC5104610451FC4800BA
:106980004BFE4A8A6A5253FE42224222422A420463
:1069900001000100010001FE0100010001000100F1
:1069A0003FF8200820082008200820083FF8200889
:1069B000020001007FFE4002882410102008000021
:1069C0001FF0010001000100010001007FFC000038
:1069D0000080208020802084208820903EA020C03D
:1069E000208020802080208226823882207E000025
:1069F00010401020102013FEFA02144410401BFE19
:106A00003088D088110810D01020105050882304EE
:106A10000000FFFE0200020002000200024002200D
:106A20000210020802080200020002000200020036
:106A30000000FFFE0200020004003FF82448244842
:106A400027C82448244827C8244824483FF8200859
:106A5000000427C414441454855445544554155413
:106A600015542554E5542104228422442414080892
:106A7000200023FC22042204FBFC222022202BFEE7
:106A80003220E22022FC228422842484A4FC488434
:106A90000100210811080910092001007FF80008F1
:106AA000000800083FF80008000800087FF8000808
:106AB000101008100820FFFE00003E08224822485F
:106AC0003E48224822483E48220822082A2824100C
:106AD0000008203C13C01200020003FCF2041288DC
:106AE00012501220125014881504280047FE00008E
:106AF00000003FF82008200827C8244824482448DC
:106B00002448244827C8200820083FF8200800000F
:106B100000003FF8210821082FE8210821083FF84C
:106B2000200827C82448244827C840084028801047
:106B30002200227C7F44224422443E7C2244224480
:106B40003E44227C2244FF4404842284411482086F
:106B50000000000000000000000000000000000035
:106B60000000000000000000000000000000000025
:106B70000000000000000000000000000000000015
:106B80000000000000000000000000000000000005
:106B900000000000000000000000000000000000F5
:106BA00000000000000000000000000000000000E5
:106BB00000000000000000000000000000000000D5
:106BC00000000000000000000000000000000000C5
:106BD00000000000000000000000000000000000B5
:106BE00000000000000000000000000000000000A5
:106BF0000000000000000000000000000000000095
:106C00000000000000000000000000000000000084
:106C10000000000000000000000000000000000074
:106C20000000000000000000000000000000000064
:106C30000000000000000000000000000000000054
:106C40000000000000000000000000000000000044
:106C50000000000000000000000000000000000034
:106C60000000000000000000000000000000000024
:106C70000000000000000000000000000000000014
:106C80000000000000000000000000000000000004
:106C900000000000000000000000000000000000F4
:106CA00000000000000000000000000000000000E4
:106CB00000000000000000000000000000000000D4
:106CC00000000000000000000000000000000000C4
:106CD00000000000000000000000000000000000B4
:106CE00000000000000000000000000000000000A4
:106CF0000000000000000000000000000000000094
:106D00000000000000000000000000000000000083
:106D10000000000000000000000000000000000073
:106D20000000000000000000000000000000000063
:106D30000000000000000000000000000000000053
:106D40000000000000000000000000000000000043
:106D50003031323334353637383941424344454691
:106D6000403058003031323334353637383961628B
:106D7000636465664030780004000008000000008D
:106D8000000000020001000010000000AC6D0008CF
:106D900000000020AC00000028010008586E000828
:106DA000AC000020AC0600004401000820200000D8
:106DB00000000000000000000000000000000000D3
:106DC00000000000000000000000000000000000C3
:106DD00000000000000000000000000000000000B3
:106DE00000000000000000000000000000000000A3
:106DF0000000000000000000000000000000000093
:106E000000A24A0400000000000000000102030488
:106E10000607080900000000000000000000000054
:106E20000000000000000000000000000000000062
:106E30000000FFFF00000000000000000000000054
:106E4000000000000000000001020304010203042E
:086E5000060708090204060808
:04000005080000ED02
:00000001FF
