ARM Linker, RVCT4.0 [Build 524] for uVision [Standard]

==============================================================================

Section Cross References

    main.o(.text) refers (Special) to _printf_dec.o(.text) for _printf_int_dec
    main.o(.text) refers (Special) to _printf_percent.o(.ARM.Collect$$_printf_percent$$00000000) for _printf_percent
    main.o(.text) refers (Special) to _printf_pad.o(.text) for _printf_pre_padding
    main.o(.text) refers (Special) to _printf_u.o(.ARM.Collect$$_printf_percent$$0000000A) for _printf_u
    main.o(.text) refers to system_stm32f10x.o(.text) for SystemInit
    main.o(.text) refers to delay.o(.text) for delay_init
    main.o(.text) refers to sys.o(.text) for NVIC_Configuration
    main.o(.text) refers to usart.o(.text) for uart_init
    main.o(.text) refers to lcd.o(.text) for LCD_Init
    main.o(.text) refers to keyboard.o(.text) for Keyboard_Init
    main.o(.text) refers to ui.o(.text) for Static_UI
    main.o(.text) refers to sendtofpga.o(.text) for sendtoFPGA_Init
    main.o(.text) refers to exti.o(.text) for EXTIX_Init
    main.o(.text) refers to dflt_clz.o(x$fpl$dfltu) for __aeabi_ui2d
    main.o(.text) refers to ddiv.o(x$fpl$ddiv) for __aeabi_ddiv
    main.o(.text) refers to dmul.o(x$fpl$dmul) for __aeabi_dmul
    main.o(.text) refers to dleqf.o(x$fpl$dleqf) for __aeabi_cdcmple
    main.o(.text) refers to dfixu.o(x$fpl$dfixu) for __aeabi_d2uiz
==============================================================================

Removing Unused input sections from the image.

    Removing core_cm3.o(.emb_text), (32 bytes).
    Removing stm32f10x_adc.o(.text), (1070 bytes).
    Removing stm32f10x_bkp.o(.text), (176 bytes).
    Removing stm32f10x_can.o(.text), (2568 bytes).
    Removing stm32f10x_cec.o(.text), (292 bytes).
    Removing stm32f10x_crc.o(.text), (72 bytes).
    Removing stm32f10x_dac.o(.text), (372 bytes).
    Removing stm32f10x_dbgmcu.o(.text), (48 bytes).
    Removing stm32f10x_dma.o(.text), (604 bytes).
    Removing stm32f10x_flash.o(.text), (1484 bytes).
    Removing stm32f10x_fsmc.o(.text), (1544 bytes).
    Removing stm32f10x_i2c.o(.text), (1016 bytes).
    Removing stm32f10x_iwdg.o(.text), (64 bytes).
    Removing stm32f10x_pwr.o(.text), (212 bytes).
    Removing stm32f10x_rtc.o(.text), (356 bytes).
    Removing stm32f10x_sdio.o(.text), (460 bytes).
    Removing stm32f10x_spi.o(.text), (780 bytes).
    Removing stm32f10x_tim.o(.text), (3426 bytes).
==============================================================================

Image Symbol Table

    Local Symbols

    Symbol Name                              Value     Ov Type        Size  Object(Section)

    ../../angel/boardlib.s                   0x00000000   Number         0  boardinit2.o ABSOLUTE
    ../../angel/boardlib.s                   0x00000000   Number         0  boardinit3.o ABSOLUTE
    ../../angel/boardlib.s                   0x00000000   Number         0  boardshut.o ABSOLUTE
    ../../angel/boardlib.s                   0x00000000   Number         0  boardinit1.o ABSOLUTE
    ../../angel/handlers.s                   0x00000000   Number         0  __scatter_zi.o ABSOLUTE
    ../../angel/handlers.s                   0x00000000   Number         0  __scatter_copy.o ABSOLUTE
    ../../angel/kernel.s                     0x00000000   Number         0  rtentry.o ABSOLUTE
    ../../angel/kernel.s                     0x00000000   Number         0  rtexit.o ABSOLUTE
    ../../angel/kernel.s                     0x00000000   Number         0  rtexit2.o ABSOLUTE
    ../../angel/kernel.s                     0x00000000   Number         0  rtentry4.o ABSOLUTE
    ../../angel/kernel.s                     0x00000000   Number         0  rtentry2.o ABSOLUTE
    ../../angel/rt.s                         0x00000000   Number         0  rt_raise.o ABSOLUTE
    ../../angel/scatter.s                    0x00000000   Number         0  __scatter.o ABSOLUTE
    ../../angel/startup.s                    0x00000000   Number         0  __main.o ABSOLUTE
    ../../angel/sys.s                        0x00000000   Number         0  sys_stackheap_outer.o ABSOLUTE
    ../../angel/sys.s                        0x00000000   Number         0  use_no_semi.o ABSOLUTE
    ../../angel/sys.s                        0x00000000   Number         0  libspace.o ABSOLUTE
    ../../angel/sys.s                        0x00000000   Number         0  use_no_semi_2.o ABSOLUTE
    ../../angel/sysapp.c                     0x00000000   Number         0  sys_wrch.o ABSOLUTE
    ../../angel/sysapp.c                     0x00000000   Number         0  sys_command.o ABSOLUTE
    ../../armsys.c                           0x00000000   Number         0  no_argv.o ABSOLUTE
    ../../armsys.c                           0x00000000   Number         0  argv_veneer.o ABSOLUTE
    ../../armsys.c                           0x00000000   Number         0  _get_argv_nomalloc.o ABSOLUTE
    ../../armsys.c                           0x00000000   Number         0  argv_veneer.o ABSOLUTE
    ../../dcheck.s                           0x00000000   Number         0  dcheck.o ABSOLUTE
    ../../dcheck1.s                          0x00000000   Number         0  dcheck1.o ABSOLUTE
    ../../dcmpin.s                           0x00000000   Number         0  dcmpin.o ABSOLUTE
    ../../ddiv.s                             0x00000000   Number         0  ddiv.o ABSOLUTE
    ../../dfixu.s                            0x00000000   Number         0  dfixu.o ABSOLUTE
    ../../dflt.s                             0x00000000   Number         0  dflt_clz.o ABSOLUTE
    ../../division_7m.s                      0x00000000   Number         0  rtudiv10.o ABSOLUTE
    ../../dleqf.s                            0x00000000   Number         0  dleqf.o ABSOLUTE
    ../../dmul.s                             0x00000000   Number         0  dmul.o ABSOLUTE
    ../../drleqf.s                           0x00000000   Number         0  drleqf.o ABSOLUTE
    ../../dunder.s                           0x00000000   Number         0  dunder.o ABSOLUTE
    ../../fpinit.s                           0x00000000   Number         0  fpinit.o ABSOLUTE
    ../../heapalloc.c                        0x00000000   Number         0  hrguard.o ABSOLUTE
    ../../heapaux.c                          0x00000000   Number         0  heapauxi.o ABSOLUTE
    ../../libinit.s                          0x00000000   Number         0  libshutdown.o ABSOLUTE
    ../../libinit.s                          0x00000000   Number         0  libinit2.o ABSOLUTE
    ../../libinit.s                          0x00000000   Number         0  libinit.o ABSOLUTE
    ../../libinit.s                          0x00000000   Number         0  libshutdown2.o ABSOLUTE
    ../../misc.s                             0x00000000   Number         0  printf_stubs.o ABSOLUTE
    ../../printf.c                           0x00000000   Number         0  _printf_hex_int_ll.o ABSOLUTE
    ../../printf.c                           0x00000000   Number         0  _printf_hex_ll_ptr.o ABSOLUTE
    ../../printf.c                           0x00000000   Number         0  _printf_hex_int_ll_ptr.o ABSOLUTE
    ../../printf.c                           0x00000000   Number         0  _printf_hex_int_ptr.o ABSOLUTE
    ../../printf.c                           0x00000000   Number         0  __printf_ss.o ABSOLUTE
    ../../printf.c                           0x00000000   Number         0  _printf_char_common.o ABSOLUTE
    ../../printf.c                           0x00000000   Number         0  _printf_hex_ll.o ABSOLUTE
    ../../printf.c                           0x00000000   Number         0  _printf_dec.o ABSOLUTE
    ../../printf.c                           0x00000000   Number         0  _printf_hex_int.o ABSOLUTE
    ../../printf.c                           0x00000000   Number         0  _printf_pad.o ABSOLUTE
    ../../printf.c                           0x00000000   Number         0  __printf.o ABSOLUTE
    ../../printf.c                           0x00000000   Number         0  __printf_flags_ss.o ABSOLUTE
    ../../printf.c                           0x00000000   Number         0  noretval__2sprintf.o ABSOLUTE
    ../../printf.c                           0x00000000   Number         0  noretval__2printf.o ABSOLUTE
    ../../printf.c                           0x00000000   Number         0  __2sprintf.o ABSOLUTE
    ../../printf.c                           0x00000000   Number         0  __2printf.o ABSOLUTE
    ../../printf.c                           0x00000000   Number         0  __printf_flags_ss_wp.o ABSOLUTE
    ../../printf.c                           0x00000000   Number         0  __printf_wp.o ABSOLUTE
    ../../printf.c                           0x00000000   Number         0  __printf_flags_wp.o ABSOLUTE
    ../../printf.c                           0x00000000   Number         0  __printf_nopercent.o ABSOLUTE
    ../../printf.c                           0x00000000   Number         0  __printf_ss_wp.o ABSOLUTE
    ../../printf.c                           0x00000000   Number         0  _printf_intcommon.o ABSOLUTE
    ../../printf.c                           0x00000000   Number         0  _printf_hex_ptr.o ABSOLUTE
    ../../printf.c                           0x00000000   Number         0  _sputc.o ABSOLUTE
    ../../printf.c                           0x00000000   Number         0  __printf_flags.o ABSOLUTE
    ../../printf_percent.s                   0x00000000   Number         0  _printf_percent_end.o ABSOLUTE
    ../../printf_percent.s                   0x00000000   Number         0  _printf_u.o ABSOLUTE
    ../../printf_percent.s                   0x00000000   Number         0  _printf_percent.o ABSOLUTE
    ../../printf_percent.s                   0x00000000   Number         0  _printf_x.o ABSOLUTE
    ../../retnan.s                           0x00000000   Number         0  retnan.o ABSOLUTE
    ../../signal.c                           0x00000000   Number         0  defsig_abrt_inner.o ABSOLUTE
    ../../signal.c                           0x00000000   Number         0  __raise.o ABSOLUTE
    ../../signal.c                           0x00000000   Number         0  defsig_general.o ABSOLUTE
    ../../signal.c                           0x00000000   Number         0  defsig_cppl_inner.o ABSOLUTE
    ../../signal.c                           0x00000000   Number         0  defsig_rtmem_inner.o ABSOLUTE
    ../../signal.c                           0x00000000   Number         0  defsig_exit.o ABSOLUTE
    ../../signal.c                           0x00000000   Number         0  defsig_rtmem_formal.o ABSOLUTE
    ../../signal.c                           0x00000000   Number         0  defsig_rtmem_outer.o ABSOLUTE
    ../../signal.c                           0x00000000   Number         0  defsig_other.o ABSOLUTE
    ../../signal.c                           0x00000000   Number         0  defsig_segv_inner.o ABSOLUTE
    ../../signal.c                           0x00000000   Number         0  defsig_pvfn_inner.o ABSOLUTE
    ../../signal.c                           0x00000000   Number         0  defsig_stak_inner.o ABSOLUTE
    ../../signal.c                           0x00000000   Number         0  defsig_rtred_inner.o ABSOLUTE
    ../../signal.c                           0x00000000   Number         0  defsig_fpe_inner.o ABSOLUTE
    ../../signal.s                           0x00000000   Number         0  defsig.o ABSOLUTE
    ../../stdio.c                            0x00000000   Number         0  ferror.o ABSOLUTE
    ../../stdio.c                            0x00000000   Number         0  ferror_locked.o ABSOLUTE
    ../../stdlib.c                           0x00000000   Number         0  exit.o ABSOLUTE
    ../../trapv.s                            0x00000000   Number         0  trapv.o ABSOLUTE
    ../../usenofp.s                          0x00000000   Number         0  usenofp.o ABSOLUTE
    ..\CORE\core_cm3.c                       0x00000000   Number         0  core_cm3.o ABSOLUTE
    ..\CORE\startup_stm32f10x_md.s           0x00000000   Number         0  startup_stm32f10x_md.o ABSOLUTE
    ..\HARDWARE\EXTI\exti.c                  0x00000000   Number         0  exti.o ABSOLUTE
    ..\HARDWARE\LCD\lcd.c                    0x00000000   Number         0  lcd.o ABSOLUTE
    ..\HARDWARE\keyboard\keyboard.c          0x00000000   Number         0  keyboard.o ABSOLUTE
    ..\HARDWARE\sendtoFPGA\sendtoFPGA.c      0x00000000   Number         0  sendtofpga.o ABSOLUTE
    ..\STM32F10x_FWLib\src\misc.c            0x00000000   Number         0  misc.o ABSOLUTE
    ..\STM32F10x_FWLib\src\stm32f10x_adc.c   0x00000000   Number         0  stm32f10x_adc.o ABSOLUTE
    ..\STM32F10x_FWLib\src\stm32f10x_bkp.c   0x00000000   Number         0  stm32f10x_bkp.o ABSOLUTE
    ..\STM32F10x_FWLib\src\stm32f10x_can.c   0x00000000   Number         0  stm32f10x_can.o ABSOLUTE
    ..\STM32F10x_FWLib\src\stm32f10x_cec.c   0x00000000   Number         0  stm32f10x_cec.o ABSOLUTE
    ..\STM32F10x_FWLib\src\stm32f10x_crc.c   0x00000000   Number         0  stm32f10x_crc.o ABSOLUTE
    ..\STM32F10x_FWLib\src\stm32f10x_dac.c   0x00000000   Number         0  stm32f10x_dac.o ABSOLUTE
    ..\STM32F10x_FWLib\src\stm32f10x_dbgmcu.c 0x00000000   Number         0  stm32f10x_dbgmcu.o ABSOLUTE
    ..\STM32F10x_FWLib\src\stm32f10x_dma.c   0x00000000   Number         0  stm32f10x_dma.o ABSOLUTE
    ..\STM32F10x_FWLib\src\stm32f10x_exti.c  0x00000000   Number         0  stm32f10x_exti.o ABSOLUTE
    ..\STM32F10x_FWLib\src\stm32f10x_flash.c 0x00000000   Number         0  stm32f10x_flash.o ABSOLUTE
    ..\STM32F10x_FWLib\src\stm32f10x_fsmc.c  0x00000000   Number         0  stm32f10x_fsmc.o ABSOLUTE
    ..\STM32F10x_FWLib\src\stm32f10x_gpio.c  0x00000000   Number         0  stm32f10x_gpio.o ABSOLUTE
    ..\STM32F10x_FWLib\src\stm32f10x_i2c.c   0x00000000   Number         0  stm32f10x_i2c.o ABSOLUTE
    ..\STM32F10x_FWLib\src\stm32f10x_iwdg.c  0x00000000   Number         0  stm32f10x_iwdg.o ABSOLUTE
    ..\STM32F10x_FWLib\src\stm32f10x_pwr.c   0x00000000   Number         0  stm32f10x_pwr.o ABSOLUTE
    ..\STM32F10x_FWLib\src\stm32f10x_rcc.c   0x00000000   Number         0  stm32f10x_rcc.o ABSOLUTE
    ..\STM32F10x_FWLib\src\stm32f10x_rtc.c   0x00000000   Number         0  stm32f10x_rtc.o ABSOLUTE
    ..\STM32F10x_FWLib\src\stm32f10x_sdio.c  0x00000000   Number         0  stm32f10x_sdio.o ABSOLUTE
    ..\STM32F10x_FWLib\src\stm32f10x_spi.c   0x00000000   Number         0  stm32f10x_spi.o ABSOLUTE
    ..\STM32F10x_FWLib\src\stm32f10x_tim.c   0x00000000   Number         0  stm32f10x_tim.o ABSOLUTE
    ..\STM32F10x_FWLib\src\stm32f10x_usart.c 0x00000000   Number         0  stm32f10x_usart.o ABSOLUTE
    ..\STM32F10x_FWLib\src\stm32f10x_wwdg.c  0x00000000   Number         0  stm32f10x_wwdg.o ABSOLUTE
    ..\SYSTEM\delay\delay.c                  0x00000000   Number         0  delay.o ABSOLUTE
    ..\SYSTEM\sys\sys.c                      0x00000000   Number         0  sys.o ABSOLUTE
    ..\SYSTEM\usart\usart.c                  0x00000000   Number         0  usart.o ABSOLUTE
    ..\\CORE\\core_cm3.c                     0x00000000   Number         0  core_cm3.o ABSOLUTE
    UI.c                                     0x00000000   Number         0  ui.o ABSOLUTE
    dc.s                                     0x00000000   Number         0  dc.o ABSOLUTE
    main.c                                   0x00000000   Number         0  main.o ABSOLUTE
    stm32f10x_it.c                           0x00000000   Number         0  stm32f10x_it.o ABSOLUTE
    system_stm32f10x.c                       0x00000000   Number         0  system_stm32f10x.o ABSOLUTE
    RESET                                    0x08000000   Section      236  startup_stm32f10x_md.o(RESET)
    !!!main                                  0x080000ec   Section        8  __main.o(!!!main)
    !!!scatter                               0x080000f4   Section       52  __scatter.o(!!!scatter)
    !!handler_copy                           0x08000128   Section       26  __scatter_copy.o(!!handler_copy)
    !!handler_zi                             0x08000144   Section       28  __scatter_zi.o(!!handler_zi)
    .ARM.Collect$$_printf_percent$$00000000  0x08000160   Section        0  _printf_percent.o(.ARM.Collect$$_printf_percent$$00000000)
    .ARM.Collect$$_printf_percent$$0000000A  0x08000160   Section        6  _printf_u.o(.ARM.Collect$$_printf_percent$$0000000A)
    .ARM.Collect$$_printf_percent$$0000000C  0x08000166   Section        6  _printf_x.o(.ARM.Collect$$_printf_percent$$0000000C)
    .ARM.Collect$$_printf_percent$$00000017  0x0800016c   Section        4  _printf_percent_end.o(.ARM.Collect$$_printf_percent$$00000017)
    .ARM.Collect$$libinit$$00000000          0x08000170   Section        6  libinit.o(.ARM.Collect$$libinit$$00000000)
    .ARM.Collect$$libinit$$00000006          0x08000176   Section        0  libinit2.o(.ARM.Collect$$libinit$$00000006)
    .ARM.Collect$$libinit$$00000008          0x08000176   Section        0  libinit2.o(.ARM.Collect$$libinit$$00000008)
    .ARM.Collect$$libinit$$0000000A          0x08000176   Section        0  libinit2.o(.ARM.Collect$$libinit$$0000000A)
    .ARM.Collect$$libinit$$0000000D          0x08000176   Section        0  libinit2.o(.ARM.Collect$$libinit$$0000000D)
    .ARM.Collect$$libinit$$0000000F          0x08000176   Section        0  libinit2.o(.ARM.Collect$$libinit$$0000000F)
    .ARM.Collect$$libinit$$00000011          0x08000176   Section        0  libinit2.o(.ARM.Collect$$libinit$$00000011)
    .ARM.Collect$$libinit$$00000013          0x08000176   Section        0  libinit2.o(.ARM.Collect$$libinit$$00000013)
    .ARM.Collect$$libinit$$00000015          0x08000176   Section        0  libinit2.o(.ARM.Collect$$libinit$$00000015)
    .ARM.Collect$$libinit$$00000017          0x08000176   Section        0  libinit2.o(.ARM.Collect$$libinit$$00000017)
    .ARM.Collect$$libinit$$00000019          0x08000176   Section        0  libinit2.o(.ARM.Collect$$libinit$$00000019)
    .ARM.Collect$$libinit$$0000001B          0x08000176   Section        0  libinit2.o(.ARM.Collect$$libinit$$0000001B)
    .ARM.Collect$$libinit$$0000001D          0x08000176   Section        0  libinit2.o(.ARM.Collect$$libinit$$0000001D)
    .ARM.Collect$$libinit$$0000001F          0x08000176   Section        0  libinit2.o(.ARM.Collect$$libinit$$0000001F)
    .ARM.Collect$$libinit$$00000021          0x08000176   Section        0  libinit2.o(.ARM.Collect$$libinit$$00000021)
    .ARM.Collect$$libinit$$00000028          0x08000176   Section        0  libinit2.o(.ARM.Collect$$libinit$$00000028)
    .ARM.Collect$$libinit$$0000002A          0x08000176   Section        0  libinit2.o(.ARM.Collect$$libinit$$0000002A)
    .ARM.Collect$$libinit$$0000002C          0x08000176   Section        0  libinit2.o(.ARM.Collect$$libinit$$0000002C)
    .ARM.Collect$$libinit$$0000002E          0x08000176   Section        0  libinit2.o(.ARM.Collect$$libinit$$0000002E)
    .ARM.Collect$$libinit$$0000002F          0x08000176   Section        2  libinit2.o(.ARM.Collect$$libinit$$0000002F)
    .ARM.Collect$$libshutdown$$00000000      0x08000178   Section        2  libshutdown.o(.ARM.Collect$$libshutdown$$00000000)
    .ARM.Collect$$libshutdown$$00000003      0x0800017a   Section        0  libshutdown2.o(.ARM.Collect$$libshutdown$$00000003)
    .ARM.Collect$$libshutdown$$00000006      0x0800017a   Section        0  libshutdown2.o(.ARM.Collect$$libshutdown$$00000006)
    .ARM.Collect$$libshutdown$$00000009      0x0800017a   Section        0  libshutdown2.o(.ARM.Collect$$libshutdown$$00000009)
    .ARM.Collect$$libshutdown$$0000000B      0x0800017a   Section        0  libshutdown2.o(.ARM.Collect$$libshutdown$$0000000B)
    .ARM.Collect$$libshutdown$$0000000E      0x0800017a   Section        0  libshutdown2.o(.ARM.Collect$$libshutdown$$0000000E)
    .ARM.Collect$$libshutdown$$0000000F      0x0800017a   Section        2  libshutdown2.o(.ARM.Collect$$libshutdown$$0000000F)
    .ARM.Collect$$rtentry$$00000000          0x0800017c   Section        0  rtentry.o(.ARM.Collect$$rtentry$$00000000)
    .ARM.Collect$$rtentry$$00000002          0x0800017c   Section        0  rtentry2.o(.ARM.Collect$$rtentry$$00000002)
    .ARM.Collect$$rtentry$$00000004          0x0800017c   Section        6  rtentry4.o(.ARM.Collect$$rtentry$$00000004)
    .ARM.Collect$$rtentry$$00000009          0x08000182   Section        0  rtentry2.o(.ARM.Collect$$rtentry$$00000009)
    .ARM.Collect$$rtentry$$0000000A          0x08000182   Section        4  rtentry2.o(.ARM.Collect$$rtentry$$0000000A)
    .ARM.Collect$$rtentry$$0000000C          0x08000186   Section        0  rtentry2.o(.ARM.Collect$$rtentry$$0000000C)
    .ARM.Collect$$rtentry$$0000000D          0x08000186   Section        8  rtentry2.o(.ARM.Collect$$rtentry$$0000000D)
    .ARM.Collect$$rtexit$$00000000           0x0800018e   Section        0  rtexit.o(.ARM.Collect$$rtexit$$00000000)
    .ARM.Collect$$rtexit$$00000002           0x0800018e   Section        0  rtexit2.o(.ARM.Collect$$rtexit$$00000002)
    .ARM.Collect$$rtexit$$00000003           0x0800018e   Section        4  rtexit2.o(.ARM.Collect$$rtexit$$00000003)
    .ARM.Collect$$rtexit$$00000004           0x08000192   Section        4  rtexit2.o(.ARM.Collect$$rtexit$$00000004)
    .text                                    0x08000198   Section     1960  main.o(.text)
    .text                                    0x08000940   Section       26  stm32f10x_it.o(.text)
    .text                                    0x0800095c   Section      456  system_stm32f10x.o(.text)
    SetSysClockTo72                          0x0800095d   Thumb Code   192  system_stm32f10x.o(.text)
    SetSysClock                              0x08000a1d   Thumb Code     8  system_stm32f10x.o(.text)
    .text                                    0x08000b24   Section     1556  ui.o(.text)
    .text                                    0x08001138   Section      644  exti.o(.text)
    .text                                    0x080013bc   Section     1448  keyboard.o(.text)
    .text                                    0x08001964   Section     9812  lcd.o(.text)
    .text                                    0x08003fb8   Section       60  sendtofpga.o(.text)
    .text                                    0x08003ff4   Section      152  delay.o(.text)
    .text                                    0x0800408c   Section       12  sys.o(.text)
    .text                                    0x08004098   Section      320  usart.o(.text)
    .text                                    0x080041d8   Section       64  startup_stm32f10x_md.o(.text)
    .text                                    0x08004218   Section      224  misc.o(.text)
    .text                                    0x080042f8   Section      304  stm32f10x_exti.o(.text)
    .text                                    0x08004428   Section      840  stm32f10x_gpio.o(.text)
    .text                                    0x08004770   Section      912  stm32f10x_rcc.o(.text)
    .text                                    0x08004b00   Section     1032  stm32f10x_usart.o(.text)
    .text                                    0x08004f08   Section        2  use_no_semi_2.o(.text)
    .text                                    0x08004f0c   Section       32  noretval__2printf.o(.text)
    .text                                    0x08004f2c   Section       40  noretval__2sprintf.o(.text)
    .text                                    0x08004f54   Section       76  _printf_pad.o(.text)
    .text                                    0x08004fa0   Section      112  _printf_dec.o(.text)
    .text                                    0x08005010   Section       92  _printf_hex_int.o(.text)
    .text                                    0x0800506c   Section      328  __printf_flags_wp.o(.text)
    .text                                    0x080051b4   Section        6  heapauxi.o(.text)
    .text                                    0x080051ba   Section        2  use_no_semi.o(.text)
    .text                                    0x080051bc   Section      174  _printf_intcommon.o(.text)
    .text                                    0x0800526c   Section       48  _printf_char_common.o(.text)
    _printf_input_char                       0x0800526d   Thumb Code    10  _printf_char_common.o(.text)
    .text                                    0x0800529c   Section       10  _sputc.o(.text)
    .text                                    0x080052a6   Section       16  rtudiv10.o(.text)
    .text                                    0x080052b6   Section       74  sys_stackheap_outer.o(.text)
    .text                                    0x08005300   Section       12  exit.o(.text)
    .text                                    0x0800530c   Section        8  libspace.o(.text)
    i.LCD_SetCursor                          0x08005314   Section      212  lcd.o(i.LCD_SetCursor)
    x$fpl$dcheck                             0x080053e8   Section       16  dcheck.o(x$fpl$dcheck)
    x$fpl$dcheck1                            0x080053f8   Section       16  dcheck1.o(x$fpl$dcheck1)
    x$fpl$dcmpinfnan                         0x08005408   Section      120  dcmpin.o(x$fpl$dcmpinfnan)
    x$fpl$ddiv                               0x08005480   Section     1024  ddiv.o(x$fpl$ddiv)
    ddiv_entry                               0x08005483   Thumb Code     0  ddiv.o(x$fpl$ddiv)
    x$fpl$dfixu                              0x08005880   Section      116  dfixu.o(x$fpl$dfixu)
    x$fpl$dflt                               0x080058f4   Section       44  dflt_clz.o(x$fpl$dflt)
    x$fpl$dfltu                              0x08005920   Section       10  dflt_clz.o(x$fpl$dfltu)
    x$fpl$dleqf                              0x0800592c   Section      112  dleqf.o(x$fpl$dleqf)
    x$fpl$dmul                               0x0800599c   Section      456  dmul.o(x$fpl$dmul)
    x$fpl$drleqf                             0x08005b64   Section      136  drleqf.o(x$fpl$drleqf)
    x$fpl$dunder                             0x08005bec   Section      236  dunder.o(x$fpl$dunder)
    x$fpl$retnan                             0x08005cd8   Section      100  retnan.o(x$fpl$retnan)
    x$fpl$trapveneer                         0x08005d3c   Section       48  trapv.o(x$fpl$trapveneer)
    .constdata                               0x08005d6c   Section     4068  lcd.o(.constdata)
    x$fpl$usenofp                            0x08005d6c   Section        0  usenofp.o(x$fpl$usenofp)
    .constdata                               0x08006d50   Section       40  _printf_hex_int.o(.constdata)
    uc_hextab                                0x08006d50   Data          20  _printf_hex_int.o(.constdata)
    lc_hextab                                0x08006d64   Data          20  _printf_hex_int.o(.constdata)
    .constdata                               0x08006d78   Section       17  __printf_flags_wp.o(.constdata)
    maptable                                 0x08006d78   Data          17  __printf_flags_wp.o(.constdata)
    .data                                    0x20000000   Section       84  main.o(.data)
    .data                                    0x20000054   Section       20  system_stm32f10x.o(.data)
    .data                                    0x20000068   Section       28  exti.o(.data)
    .data                                    0x20000084   Section        6  lcd.o(.data)
    .data                                    0x2000008a   Section        4  delay.o(.data)
    fac_us                                   0x2000008a   Data           1  delay.o(.data)
    fac_ms                                   0x2000008c   Data           2  delay.o(.data)
    .data                                    0x20000090   Section        8  usart.o(.data)
    .data                                    0x20000098   Section       20  stm32f10x_rcc.o(.data)
    APBAHBPrescTable                         0x20000098   Data          16  stm32f10x_rcc.o(.data)
    ADCPrescTable                            0x200000a8   Data           4  stm32f10x_rcc.o(.data)
    .bss                                     0x200000ac   Section        9  main.o(.bss)
    .bss                                     0x200000b5   Section       64  usart.o(.bss)
    .bss                                     0x200000f8   Section       96  libspace.o(.bss)
    HEAP                                     0x20000158   Section      512  startup_stm32f10x_md.o(HEAP)
    Heap_Mem                                 0x20000158   Data         512  startup_stm32f10x_md.o(HEAP)
    STACK                                    0x20000358   Section     1024  startup_stm32f10x_md.o(STACK)
    Stack_Mem                                0x20000358   Data        1024  startup_stm32f10x_md.o(STACK)
    __initial_sp                             0x20000758   Data           0  startup_stm32f10x_md.o(STACK)

    Global Symbols

    Symbol Name                              Value     Ov Type        Size  Object(Section)

    BuildAttributes$$THM_ISAv4$P$D$K$B$S$PE$A:L22UL41UL21$X:L11$S22US41US21$IEEE1$IW$USESV6$~STKCKD$USESV7$~SHL$OSPACE$ROPI$EBA8$UX$STANDARDLIB$REQ8$PRES8$EABIv2 0x00000000   Number         0  anon$$obj.o ABSOLUTE
    __ARM_use_no_argv                        0x00000000   Number         0  main.o ABSOLUTE
    _printf_flags                            0x00000000   Number         0  printf_stubs.o ABSOLUTE
    _printf_return_value                     0x00000000   Number         0  printf_stubs.o ABSOLUTE
    _printf_sizespec                         0x00000000   Number         0  printf_stubs.o ABSOLUTE
    _printf_widthprec                        0x00000000   Number         0  printf_stubs.o ABSOLUTE
    __ARM_exceptions_init                     - Undefined Weak Reference
    __alloca_initialize                       - Undefined Weak Reference
    __cpp_initialize__aeabi_                  - Undefined Weak Reference
    __cxa_finalize                            - Undefined Weak Reference
    __fpl_infinity                            - Undefined Weak Reference
    __rt_locale                               - Undefined Weak Reference
    __sigvec_lookup                           - Undefined Weak Reference
    _atexit_init                              - Undefined Weak Reference
    _call_atexit_fns                          - Undefined Weak Reference
    _clock_init                               - Undefined Weak Reference
    _fp_trap_init                             - Undefined Weak Reference
    _fp_trap_shutdown                         - Undefined Weak Reference
    _get_lc_collate                           - Undefined Weak Reference
    _get_lc_ctype                             - Undefined Weak Reference
    _get_lc_monetary                          - Undefined Weak Reference
    _get_lc_numeric                           - Undefined Weak Reference
    _get_lc_time                              - Undefined Weak Reference
    _getenv_init                              - Undefined Weak Reference
    _handle_redirection                       - Undefined Weak Reference
    _init_alloc                               - Undefined Weak Reference
    _init_user_alloc                          - Undefined Weak Reference
    _initio                                   - Undefined Weak Reference
    _mutex_acquire                            - Undefined Weak Reference
    _mutex_release                            - Undefined Weak Reference
    _printf_truncate_signed                   - Undefined Weak Reference
    _printf_truncate_unsigned                 - Undefined Weak Reference
    _rand_init                                - Undefined Weak Reference
    _signal_finish                            - Undefined Weak Reference
    _signal_init                              - Undefined Weak Reference
    _terminate_alloc                          - Undefined Weak Reference
    _terminate_user_alloc                     - Undefined Weak Reference
    _terminateio                              - Undefined Weak Reference
    __Vectors_Size                           0x000000ec   Number         0  startup_stm32f10x_md.o ABSOLUTE
    __Vectors                                0x08000000   Data           4  startup_stm32f10x_md.o(RESET)
    __Vectors_End                            0x080000ec   Data           0  startup_stm32f10x_md.o(RESET)
    __main                                   0x080000ed   Thumb Code     8  __main.o(!!!main)
    __scatterload                            0x080000f5   Thumb Code     0  __scatter.o(!!!scatter)
    __scatterload_rt2                        0x080000f5   Thumb Code    44  __scatter.o(!!!scatter)
    __scatterload_rt2_thumb_only             0x080000f5   Thumb Code     0  __scatter.o(!!!scatter)
    __scatterload_null                       0x08000103   Thumb Code     0  __scatter.o(!!!scatter)
    __scatterload_copy                       0x08000129   Thumb Code    26  __scatter_copy.o(!!handler_copy)
    __scatterload_zeroinit                   0x08000145   Thumb Code    28  __scatter_zi.o(!!handler_zi)
    _printf_percent                          0x08000161   Thumb Code     0  _printf_percent.o(.ARM.Collect$$_printf_percent$$00000000)
    _printf_u                                0x08000161   Thumb Code     0  _printf_u.o(.ARM.Collect$$_printf_percent$$0000000A)
    _printf_x                                0x08000167   Thumb Code     0  _printf_x.o(.ARM.Collect$$_printf_percent$$0000000C)
    _printf_percent_end                      0x0800016d   Thumb Code     0  _printf_percent_end.o(.ARM.Collect$$_printf_percent$$00000017)
    __rt_lib_init                            0x08000171   Thumb Code     0  libinit.o(.ARM.Collect$$libinit$$00000000)
    __rt_lib_init_alloca_1                   0x08000177   Thumb Code     0  libinit2.o(.ARM.Collect$$libinit$$0000002A)
    __rt_lib_init_argv_1                     0x08000177   Thumb Code     0  libinit2.o(.ARM.Collect$$libinit$$00000028)
    __rt_lib_init_atexit_1                   0x08000177   Thumb Code     0  libinit2.o(.ARM.Collect$$libinit$$00000017)
    __rt_lib_init_clock_1                    0x08000177   Thumb Code     0  libinit2.o(.ARM.Collect$$libinit$$0000001D)
    __rt_lib_init_cpp_1                      0x08000177   Thumb Code     0  libinit2.o(.ARM.Collect$$libinit$$0000002E)
    __rt_lib_init_exceptions_1               0x08000177   Thumb Code     0  libinit2.o(.ARM.Collect$$libinit$$0000002C)
    __rt_lib_init_fp_trap_1                  0x08000177   Thumb Code     0  libinit2.o(.ARM.Collect$$libinit$$0000001B)
    __rt_lib_init_getenv_1                   0x08000177   Thumb Code     0  libinit2.o(.ARM.Collect$$libinit$$0000001F)
    __rt_lib_init_heap_1                     0x08000177   Thumb Code     0  libinit2.o(.ARM.Collect$$libinit$$00000006)
    __rt_lib_init_lc_collate_1               0x08000177   Thumb Code     0  libinit2.o(.ARM.Collect$$libinit$$0000000D)
    __rt_lib_init_lc_ctype_1                 0x08000177   Thumb Code     0  libinit2.o(.ARM.Collect$$libinit$$0000000F)
    __rt_lib_init_lc_monetary_1              0x08000177   Thumb Code     0  libinit2.o(.ARM.Collect$$libinit$$00000011)
    __rt_lib_init_lc_numeric_1               0x08000177   Thumb Code     0  libinit2.o(.ARM.Collect$$libinit$$00000013)
    __rt_lib_init_lc_time_1                  0x08000177   Thumb Code     0  libinit2.o(.ARM.Collect$$libinit$$00000015)
    __rt_lib_init_rand_1                     0x08000177   Thumb Code     0  libinit2.o(.ARM.Collect$$libinit$$0000000A)
    __rt_lib_init_return                     0x08000177   Thumb Code     0  libinit2.o(.ARM.Collect$$libinit$$0000002F)
    __rt_lib_init_signal_1                   0x08000177   Thumb Code     0  libinit2.o(.ARM.Collect$$libinit$$00000019)
    __rt_lib_init_stdio_1                    0x08000177   Thumb Code     0  libinit2.o(.ARM.Collect$$libinit$$00000021)
    __rt_lib_init_user_alloc_1               0x08000177   Thumb Code     0  libinit2.o(.ARM.Collect$$libinit$$00000008)
    __rt_lib_shutdown                        0x08000179   Thumb Code     0  libshutdown.o(.ARM.Collect$$libshutdown$$00000000)
    __rt_lib_shutdown_fp_trap_1              0x0800017b   Thumb Code     0  libshutdown2.o(.ARM.Collect$$libshutdown$$00000006)
    __rt_lib_shutdown_heap_1                 0x0800017b   Thumb Code     0  libshutdown2.o(.ARM.Collect$$libshutdown$$0000000E)
    __rt_lib_shutdown_return                 0x0800017b   Thumb Code     0  libshutdown2.o(.ARM.Collect$$libshutdown$$0000000F)
    __rt_lib_shutdown_signal_1               0x0800017b   Thumb Code     0  libshutdown2.o(.ARM.Collect$$libshutdown$$00000009)
    __rt_lib_shutdown_stdio_1                0x0800017b   Thumb Code     0  libshutdown2.o(.ARM.Collect$$libshutdown$$00000003)
    __rt_lib_shutdown_user_alloc_1           0x0800017b   Thumb Code     0  libshutdown2.o(.ARM.Collect$$libshutdown$$0000000B)
    __rt_entry                               0x0800017d   Thumb Code     0  rtentry.o(.ARM.Collect$$rtentry$$00000000)
    __rt_entry_presh_1                       0x0800017d   Thumb Code     0  rtentry2.o(.ARM.Collect$$rtentry$$00000002)
    __rt_entry_sh                            0x0800017d   Thumb Code     0  rtentry4.o(.ARM.Collect$$rtentry$$00000004)
    __rt_entry_li                            0x08000183   Thumb Code     0  rtentry2.o(.ARM.Collect$$rtentry$$0000000A)
    __rt_entry_postsh_1                      0x08000183   Thumb Code     0  rtentry2.o(.ARM.Collect$$rtentry$$00000009)
    __rt_entry_main                          0x08000187   Thumb Code     0  rtentry2.o(.ARM.Collect$$rtentry$$0000000D)
    __rt_entry_postli_1                      0x08000187   Thumb Code     0  rtentry2.o(.ARM.Collect$$rtentry$$0000000C)
    __rt_exit                                0x0800018f   Thumb Code     0  rtexit.o(.ARM.Collect$$rtexit$$00000000)
    __rt_exit_ls                             0x0800018f   Thumb Code     0  rtexit2.o(.ARM.Collect$$rtexit$$00000003)
    __rt_exit_prels_1                        0x0800018f   Thumb Code     0  rtexit2.o(.ARM.Collect$$rtexit$$00000002)
    __rt_exit_exit                           0x08000193   Thumb Code     0  rtexit2.o(.ARM.Collect$$rtexit$$00000004)
    main                                     0x08000199   Thumb Code  1888  main.o(.text)
    NMI_Handler                              0x08000941   Thumb Code     2  stm32f10x_it.o(.text)
    HardFault_Handler                        0x08000943   Thumb Code     4  stm32f10x_it.o(.text)
    MemManage_Handler                        0x08000947   Thumb Code     4  stm32f10x_it.o(.text)
    BusFault_Handler                         0x0800094b   Thumb Code     4  stm32f10x_it.o(.text)
    UsageFault_Handler                       0x0800094f   Thumb Code     4  stm32f10x_it.o(.text)
    SVC_Handler                              0x08000953   Thumb Code     2  stm32f10x_it.o(.text)
    DebugMon_Handler                         0x08000955   Thumb Code     2  stm32f10x_it.o(.text)
    PendSV_Handler                           0x08000957   Thumb Code     2  stm32f10x_it.o(.text)
    SysTick_Handler                          0x08000959   Thumb Code     2  stm32f10x_it.o(.text)
    SystemInit                               0x08000a25   Thumb Code    78  system_stm32f10x.o(.text)
    SystemCoreClockUpdate                    0x08000a73   Thumb Code   142  system_stm32f10x.o(.text)
    Static_UI                                0x08000b25   Thumb Code   466  ui.o(.text)
    showFunction                             0x08000cf7   Thumb Code  1078  ui.o(.text)
    EXTIX_Init                               0x08001139   Thumb Code   174  exti.o(.text)
    EXTI1_IRQHandler                         0x080011e7   Thumb Code   438  exti.o(.text)
    Keyboard_Init                            0x080013bd   Thumb Code    64  keyboard.o(.text)
    Key_Num                                  0x080013fd   Thumb Code    90  keyboard.o(.text)
    KeyBoard_Scan                            0x08001457   Thumb Code  1294  keyboard.o(.text)
    LCD_WR_REG                               0x08001965   Thumb Code    28  lcd.o(.text)
    LCD_RD_DATA                              0x08001981   Thumb Code   104  lcd.o(.text)
    LCD_WriteReg                             0x080019e9   Thumb Code    40  lcd.o(.text)
    LCD_ReadReg                              0x08001a11   Thumb Code    16  lcd.o(.text)
    LCD_WriteRAM_Prepare                     0x08001a21   Thumb Code    30  lcd.o(.text)
    LCD_WriteRAM                             0x08001a3f   Thumb Code    28  lcd.o(.text)
    LCD_BGR2RGB                              0x08001a5b   Thumb Code    26  lcd.o(.text)
    LCD_ReadPoint                            0x08001a75   Thumb Code   286  lcd.o(.text)
    LCD_DisplayOn                            0x08001b93   Thumb Code    34  lcd.o(.text)
    LCD_DisplayOff                           0x08001bb5   Thumb Code    32  lcd.o(.text)
    LCD_Scan_Dir                             0x08001bd5   Thumb Code   694  lcd.o(.text)
    LCD_DrawPoint                            0x08001e8b   Thumb Code    52  lcd.o(.text)
    LCD_Clear                                0x08001ebf   Thumb Code    58  lcd.o(.text)
    LCD_Init                                 0x08001ef9   Thumb Code  6704  lcd.o(.text)
    LCD_Fill                                 0x08003929   Thumb Code   118  lcd.o(.text)
    LCD_DrawLine                             0x0800399f   Thumb Code   200  lcd.o(.text)
    LCD_DrawRectangle                        0x08003a67   Thumb Code    64  lcd.o(.text)
    Draw_Circle                              0x08003aa7   Thumb Code   200  lcd.o(.text)
    LCD_ShowChar                             0x08003b6f   Thumb Code   288  lcd.o(.text)
    mypow                                    0x08003c8f   Thumb Code    22  lcd.o(.text)
    LCD_ShowNum                              0x08003ca5   Thumb Code   158  lcd.o(.text)
    LCD_Show2Num                             0x08003d43   Thumb Code   102  lcd.o(.text)
    LCD_ShowString1                          0x08003da9   Thumb Code   102  lcd.o(.text)
    LCD_ShowString                           0x08003e0f   Thumb Code    74  lcd.o(.text)
    LCD_ShowHanziChar                        0x08003e59   Thumb Code   168  lcd.o(.text)
    LCD_ShowfNum                             0x08003f01   Thumb Code   184  lcd.o(.text)
    sendtoFPGA_Init                          0x08003fb9   Thumb Code    54  sendtofpga.o(.text)
    delay_init                               0x08003ff5   Thumb Code    40  delay.o(.text)
    delay_ms                                 0x0800401d   Thumb Code    54  delay.o(.text)
    delay_us                                 0x08004053   Thumb Code    52  delay.o(.text)
    NVIC_Configuration                       0x0800408d   Thumb Code    12  sys.o(.text)
    _sys_exit                                0x08004099   Thumb Code     6  usart.o(.text)
    fputc                                    0x0800409f   Thumb Code    22  usart.o(.text)
    uart_init                                0x080040b5   Thumb Code   152  usart.o(.text)
    USART1_IRQHandler                        0x0800414d   Thumb Code   124  usart.o(.text)
    Reset_Handler                            0x080041d9   Thumb Code     8  startup_stm32f10x_md.o(.text)
    ADC1_2_IRQHandler                        0x080041f3   Thumb Code     0  startup_stm32f10x_md.o(.text)
    CAN1_RX1_IRQHandler                      0x080041f3   Thumb Code     0  startup_stm32f10x_md.o(.text)
    CAN1_SCE_IRQHandler                      0x080041f3   Thumb Code     0  startup_stm32f10x_md.o(.text)
    DMA1_Channel1_IRQHandler                 0x080041f3   Thumb Code     0  startup_stm32f10x_md.o(.text)
    DMA1_Channel2_IRQHandler                 0x080041f3   Thumb Code     0  startup_stm32f10x_md.o(.text)
    DMA1_Channel3_IRQHandler                 0x080041f3   Thumb Code     0  startup_stm32f10x_md.o(.text)
    DMA1_Channel4_IRQHandler                 0x080041f3   Thumb Code     0  startup_stm32f10x_md.o(.text)
    DMA1_Channel5_IRQHandler                 0x080041f3   Thumb Code     0  startup_stm32f10x_md.o(.text)
    DMA1_Channel6_IRQHandler                 0x080041f3   Thumb Code     0  startup_stm32f10x_md.o(.text)
    DMA1_Channel7_IRQHandler                 0x080041f3   Thumb Code     0  startup_stm32f10x_md.o(.text)
    EXTI0_IRQHandler                         0x080041f3   Thumb Code     0  startup_stm32f10x_md.o(.text)
    EXTI15_10_IRQHandler                     0x080041f3   Thumb Code     0  startup_stm32f10x_md.o(.text)
    EXTI2_IRQHandler                         0x080041f3   Thumb Code     0  startup_stm32f10x_md.o(.text)
    EXTI3_IRQHandler                         0x080041f3   Thumb Code     0  startup_stm32f10x_md.o(.text)
    EXTI4_IRQHandler                         0x080041f3   Thumb Code     0  startup_stm32f10x_md.o(.text)
    EXTI9_5_IRQHandler                       0x080041f3   Thumb Code     0  startup_stm32f10x_md.o(.text)
    FLASH_IRQHandler                         0x080041f3   Thumb Code     0  startup_stm32f10x_md.o(.text)
    I2C1_ER_IRQHandler                       0x080041f3   Thumb Code     0  startup_stm32f10x_md.o(.text)
    I2C1_EV_IRQHandler                       0x080041f3   Thumb Code     0  startup_stm32f10x_md.o(.text)
    I2C2_ER_IRQHandler                       0x080041f3   Thumb Code     0  startup_stm32f10x_md.o(.text)
    I2C2_EV_IRQHandler                       0x080041f3   Thumb Code     0  startup_stm32f10x_md.o(.text)
    PVD_IRQHandler                           0x080041f3   Thumb Code     0  startup_stm32f10x_md.o(.text)
    RCC_IRQHandler                           0x080041f3   Thumb Code     0  startup_stm32f10x_md.o(.text)
    RTCAlarm_IRQHandler                      0x080041f3   Thumb Code     0  startup_stm32f10x_md.o(.text)
    RTC_IRQHandler                           0x080041f3   Thumb Code     0  startup_stm32f10x_md.o(.text)
    SPI1_IRQHandler                          0x080041f3   Thumb Code     0  startup_stm32f10x_md.o(.text)
    SPI2_IRQHandler                          0x080041f3   Thumb Code     0  startup_stm32f10x_md.o(.text)
    TAMPER_IRQHandler                        0x080041f3   Thumb Code     0  startup_stm32f10x_md.o(.text)
    TIM1_BRK_IRQHandler                      0x080041f3   Thumb Code     0  startup_stm32f10x_md.o(.text)
    TIM1_CC_IRQHandler                       0x080041f3   Thumb Code     0  startup_stm32f10x_md.o(.text)
    TIM1_TRG_COM_IRQHandler                  0x080041f3   Thumb Code     0  startup_stm32f10x_md.o(.text)
    TIM1_UP_IRQHandler                       0x080041f3   Thumb Code     0  startup_stm32f10x_md.o(.text)
    TIM2_IRQHandler                          0x080041f3   Thumb Code     0  startup_stm32f10x_md.o(.text)
    TIM3_IRQHandler                          0x080041f3   Thumb Code     0  startup_stm32f10x_md.o(.text)
    TIM4_IRQHandler                          0x080041f3   Thumb Code     0  startup_stm32f10x_md.o(.text)
    USART2_IRQHandler                        0x080041f3   Thumb Code     0  startup_stm32f10x_md.o(.text)
    USART3_IRQHandler                        0x080041f3   Thumb Code     0  startup_stm32f10x_md.o(.text)
    USBWakeUp_IRQHandler                     0x080041f3   Thumb Code     0  startup_stm32f10x_md.o(.text)
    USB_HP_CAN1_TX_IRQHandler                0x080041f3   Thumb Code     0  startup_stm32f10x_md.o(.text)
    USB_LP_CAN1_RX0_IRQHandler               0x080041f3   Thumb Code     0  startup_stm32f10x_md.o(.text)
    WWDG_IRQHandler                          0x080041f3   Thumb Code     0  startup_stm32f10x_md.o(.text)
    __user_initial_stackheap                 0x080041f5   Thumb Code     0  startup_stm32f10x_md.o(.text)
    NVIC_PriorityGroupConfig                 0x08004219   Thumb Code    10  misc.o(.text)
    NVIC_Init                                0x08004223   Thumb Code   102  misc.o(.text)
    NVIC_SetVectorTable                      0x08004289   Thumb Code    14  misc.o(.text)
    NVIC_SystemLPConfig                      0x08004297   Thumb Code    38  misc.o(.text)
    SysTick_CLKSourceConfig                  0x080042bd   Thumb Code    40  misc.o(.text)
    EXTI_DeInit                              0x080042f9   Thumb Code    32  stm32f10x_exti.o(.text)
    EXTI_Init                                0x08004319   Thumb Code   154  stm32f10x_exti.o(.text)
    EXTI_StructInit                          0x080043b3   Thumb Code    16  stm32f10x_exti.o(.text)
    EXTI_GenerateSWInterrupt                 0x080043c3   Thumb Code    16  stm32f10x_exti.o(.text)
    EXTI_GetFlagStatus                       0x080043d3   Thumb Code    22  stm32f10x_exti.o(.text)
    EXTI_ClearFlag                           0x080043e9   Thumb Code     8  stm32f10x_exti.o(.text)
    EXTI_GetITStatus                         0x080043f1   Thumb Code    34  stm32f10x_exti.o(.text)
    EXTI_ClearITPendingBit                   0x08004413   Thumb Code     8  stm32f10x_exti.o(.text)
    GPIO_DeInit                              0x08004429   Thumb Code   172  stm32f10x_gpio.o(.text)
    GPIO_AFIODeInit                          0x080044d5   Thumb Code    20  stm32f10x_gpio.o(.text)
    GPIO_Init                                0x080044e9   Thumb Code   268  stm32f10x_gpio.o(.text)
    GPIO_StructInit                          0x080045f5   Thumb Code    16  stm32f10x_gpio.o(.text)
    GPIO_ReadInputDataBit                    0x08004605   Thumb Code    18  stm32f10x_gpio.o(.text)
    GPIO_ReadInputData                       0x08004617   Thumb Code     8  stm32f10x_gpio.o(.text)
    GPIO_ReadOutputDataBit                   0x0800461f   Thumb Code    18  stm32f10x_gpio.o(.text)
    GPIO_ReadOutputData                      0x08004631   Thumb Code     8  stm32f10x_gpio.o(.text)
    GPIO_SetBits                             0x08004639   Thumb Code     4  stm32f10x_gpio.o(.text)
    GPIO_ResetBits                           0x0800463d   Thumb Code     4  stm32f10x_gpio.o(.text)
    GPIO_WriteBit                            0x08004641   Thumb Code    10  stm32f10x_gpio.o(.text)
    GPIO_Write                               0x0800464b   Thumb Code     4  stm32f10x_gpio.o(.text)
    GPIO_PinLockConfig                       0x0800464f   Thumb Code    18  stm32f10x_gpio.o(.text)
    GPIO_EventOutputConfig                   0x08004661   Thumb Code    24  stm32f10x_gpio.o(.text)
    GPIO_EventOutputCmd                      0x08004679   Thumb Code     6  stm32f10x_gpio.o(.text)
    GPIO_PinRemapConfig                      0x0800467f   Thumb Code   136  stm32f10x_gpio.o(.text)
    GPIO_EXTILineConfig                      0x08004707   Thumb Code    60  stm32f10x_gpio.o(.text)
    GPIO_ETH_MediaInterfaceConfig            0x08004743   Thumb Code     8  stm32f10x_gpio.o(.text)
    RCC_DeInit                               0x08004771   Thumb Code    64  stm32f10x_rcc.o(.text)
    RCC_HSEConfig                            0x080047b1   Thumb Code    70  stm32f10x_rcc.o(.text)
    RCC_GetFlagStatus                        0x080047f7   Thumb Code    56  stm32f10x_rcc.o(.text)
    RCC_WaitForHSEStartUp                    0x0800482f   Thumb Code    48  stm32f10x_rcc.o(.text)
    RCC_AdjustHSICalibrationValue            0x0800485f   Thumb Code    18  stm32f10x_rcc.o(.text)
    RCC_HSICmd                               0x08004871   Thumb Code     6  stm32f10x_rcc.o(.text)
    RCC_PLLConfig                            0x08004877   Thumb Code    22  stm32f10x_rcc.o(.text)
    RCC_PLLCmd                               0x0800488d   Thumb Code     6  stm32f10x_rcc.o(.text)
    RCC_SYSCLKConfig                         0x08004893   Thumb Code    16  stm32f10x_rcc.o(.text)
    RCC_GetSYSCLKSource                      0x080048a3   Thumb Code    10  stm32f10x_rcc.o(.text)
    RCC_HCLKConfig                           0x080048ad   Thumb Code    16  stm32f10x_rcc.o(.text)
    RCC_PCLK1Config                          0x080048bd   Thumb Code    16  stm32f10x_rcc.o(.text)
    RCC_PCLK2Config                          0x080048cd   Thumb Code    18  stm32f10x_rcc.o(.text)
    RCC_ITConfig                             0x080048df   Thumb Code    30  stm32f10x_rcc.o(.text)
    RCC_USBCLKConfig                         0x080048fd   Thumb Code     8  stm32f10x_rcc.o(.text)
    RCC_ADCCLKConfig                         0x08004905   Thumb Code    16  stm32f10x_rcc.o(.text)
    RCC_LSEConfig                            0x08004915   Thumb Code    50  stm32f10x_rcc.o(.text)
    RCC_LSICmd                               0x08004947   Thumb Code     6  stm32f10x_rcc.o(.text)
    RCC_RTCCLKConfig                         0x0800494d   Thumb Code    12  stm32f10x_rcc.o(.text)
    RCC_RTCCLKCmd                            0x08004959   Thumb Code     8  stm32f10x_rcc.o(.text)
    RCC_GetClocksFreq                        0x08004961   Thumb Code   194  stm32f10x_rcc.o(.text)
    RCC_AHBPeriphClockCmd                    0x08004a23   Thumb Code    26  stm32f10x_rcc.o(.text)
    RCC_APB2PeriphClockCmd                   0x08004a3d   Thumb Code    26  stm32f10x_rcc.o(.text)
    RCC_APB1PeriphClockCmd                   0x08004a57   Thumb Code    26  stm32f10x_rcc.o(.text)
    RCC_APB2PeriphResetCmd                   0x08004a71   Thumb Code    26  stm32f10x_rcc.o(.text)
    RCC_APB1PeriphResetCmd                   0x08004a8b   Thumb Code    26  stm32f10x_rcc.o(.text)
    RCC_BackupResetCmd                       0x08004aa5   Thumb Code     8  stm32f10x_rcc.o(.text)
    RCC_ClockSecuritySystemCmd               0x08004aad   Thumb Code     6  stm32f10x_rcc.o(.text)
    RCC_MCOConfig                            0x08004ab3   Thumb Code     6  stm32f10x_rcc.o(.text)
    RCC_ClearFlag                            0x08004ab9   Thumb Code    14  stm32f10x_rcc.o(.text)
    RCC_GetITStatus                          0x08004ac7   Thumb Code    20  stm32f10x_rcc.o(.text)
    RCC_ClearITPendingBit                    0x08004adb   Thumb Code     6  stm32f10x_rcc.o(.text)
    USART_DeInit                             0x08004b01   Thumb Code   134  stm32f10x_usart.o(.text)
    USART_Init                               0x08004b87   Thumb Code   210  stm32f10x_usart.o(.text)
    USART_StructInit                         0x08004c59   Thumb Code    24  stm32f10x_usart.o(.text)
    USART_ClockInit                          0x08004c71   Thumb Code    32  stm32f10x_usart.o(.text)
    USART_ClockStructInit                    0x08004c91   Thumb Code    12  stm32f10x_usart.o(.text)
    USART_Cmd                                0x08004c9d   Thumb Code    24  stm32f10x_usart.o(.text)
    USART_ITConfig                           0x08004cb5   Thumb Code    72  stm32f10x_usart.o(.text)
    USART_DMACmd                             0x08004cfd   Thumb Code    24  stm32f10x_usart.o(.text)
    USART_SetAddress                         0x08004d15   Thumb Code    18  stm32f10x_usart.o(.text)
    USART_WakeUpConfig                       0x08004d27   Thumb Code    18  stm32f10x_usart.o(.text)
    USART_ReceiverWakeUpCmd                  0x08004d39   Thumb Code    24  stm32f10x_usart.o(.text)
    USART_LINBreakDetectLengthConfig         0x08004d51   Thumb Code    18  stm32f10x_usart.o(.text)
    USART_LINCmd                             0x08004d63   Thumb Code    24  stm32f10x_usart.o(.text)
    USART_SendData                           0x08004d7b   Thumb Code     8  stm32f10x_usart.o(.text)
    USART_ReceiveData                        0x08004d83   Thumb Code    10  stm32f10x_usart.o(.text)
    USART_SendBreak                          0x08004d8d   Thumb Code    10  stm32f10x_usart.o(.text)
    USART_SetGuardTime                       0x08004d97   Thumb Code    16  stm32f10x_usart.o(.text)
    USART_SetPrescaler                       0x08004da7   Thumb Code    16  stm32f10x_usart.o(.text)
    USART_SmartCardCmd                       0x08004db7   Thumb Code    24  stm32f10x_usart.o(.text)
    USART_SmartCardNACKCmd                   0x08004dcf   Thumb Code    24  stm32f10x_usart.o(.text)
    USART_HalfDuplexCmd                      0x08004de7   Thumb Code    24  stm32f10x_usart.o(.text)
    USART_OverSampling8Cmd                   0x08004dff   Thumb Code    22  stm32f10x_usart.o(.text)
    USART_OneBitMethodCmd                    0x08004e15   Thumb Code    24  stm32f10x_usart.o(.text)
    USART_IrDAConfig                         0x08004e2d   Thumb Code    18  stm32f10x_usart.o(.text)
    USART_IrDACmd                            0x08004e3f   Thumb Code    24  stm32f10x_usart.o(.text)
    USART_GetFlagStatus                      0x08004e57   Thumb Code    26  stm32f10x_usart.o(.text)
    USART_ClearFlag                          0x08004e71   Thumb Code    18  stm32f10x_usart.o(.text)
    USART_GetITStatus                        0x08004e83   Thumb Code    84  stm32f10x_usart.o(.text)
    USART_ClearITPendingBit                  0x08004ed7   Thumb Code    50  stm32f10x_usart.o(.text)
    __use_no_semihosting                     0x08004f09   Thumb Code     2  use_no_semi_2.o(.text)
    __2printf                                0x08004f0d   Thumb Code    24  noretval__2printf.o(.text)
    __2sprintf                               0x08004f2d   Thumb Code    34  noretval__2sprintf.o(.text)
    _printf_pre_padding                      0x08004f55   Thumb Code    42  _printf_pad.o(.text)
    _printf_post_padding                     0x08004f7f   Thumb Code    34  _printf_pad.o(.text)
    _printf_int_dec                          0x08004fa1   Thumb Code    96  _printf_dec.o(.text)
    _printf_int_hex                          0x08005011   Thumb Code    86  _printf_hex_int.o(.text)
    _printf_longlong_hex                     0x08005011   Thumb Code     0  _printf_hex_int.o(.text)
    __printf                                 0x0800506d   Thumb Code   324  __printf_flags_wp.o(.text)
    __use_two_region_memory                  0x080051b5   Thumb Code     2  heapauxi.o(.text)
    __rt_heap_escrow$2region                 0x080051b7   Thumb Code     2  heapauxi.o(.text)
    __rt_heap_expand$2region                 0x080051b9   Thumb Code     2  heapauxi.o(.text)
    __I$use$semihosting                      0x080051bb   Thumb Code     0  use_no_semi.o(.text)
    __use_no_semihosting_swi                 0x080051bb   Thumb Code     2  use_no_semi.o(.text)
    _printf_int_common                       0x080051bd   Thumb Code   174  _printf_intcommon.o(.text)
    _printf_char_common                      0x08005277   Thumb Code    34  _printf_char_common.o(.text)
    _sputc                                   0x0800529d   Thumb Code    10  _sputc.o(.text)
    __rt_udiv10                              0x080052a7   Thumb Code    16  rtudiv10.o(.text)
    __user_setup_stackheap                   0x080052b7   Thumb Code    74  sys_stackheap_outer.o(.text)
    exit                                     0x08005301   Thumb Code    12  exit.o(.text)
    __user_libspace                          0x0800530d   Thumb Code     8  libspace.o(.text)
    __user_perproc_libspace                  0x0800530d   Thumb Code     0  libspace.o(.text)
    __user_perthread_libspace                0x0800530d   Thumb Code     0  libspace.o(.text)
    LCD_SetCursor                            0x08005315   Thumb Code   194  lcd.o(i.LCD_SetCursor)
    __fpl_dcheck_NaN2                        0x080053e9   Thumb Code    10  dcheck.o(x$fpl$dcheck)
    __fpl_dcheck_NaN1                        0x080053f9   Thumb Code    10  dcheck1.o(x$fpl$dcheck1)
    __fpl_dcmp_InfNaN                        0x08005409   Thumb Code   120  dcmpin.o(x$fpl$dcmpinfnan)
    __fpl_inf_dcmp                           0x0800542b   Thumb Code     0  dcmpin.o(x$fpl$dcmpinfnan)
    __aeabi_ddiv                             0x08005481   Thumb Code     0  ddiv.o(x$fpl$ddiv)
    _ddiv                                    0x08005481   Thumb Code   428  ddiv.o(x$fpl$ddiv)
    __fpl_inf_ddiv                           0x080055f5   Thumb Code     0  ddiv.o(x$fpl$ddiv)
    _ddiv_mantissas                          0x0800562d   Thumb Code   324  ddiv.o(x$fpl$ddiv)
    __aeabi_d2uiz                            0x08005881   Thumb Code     0  dfixu.o(x$fpl$dfixu)
    _dfixu                                   0x08005881   Thumb Code   110  dfixu.o(x$fpl$dfixu)
    __fpl_inf_dfixu                          0x080058e9   Thumb Code     0  dfixu.o(x$fpl$dfixu)
    __aeabi_i2d                              0x080058f5   Thumb Code     0  dflt_clz.o(x$fpl$dflt)
    _dflt                                    0x080058f5   Thumb Code    44  dflt_clz.o(x$fpl$dflt)
    __dflt_normalise                         0x08005903   Thumb Code     0  dflt_clz.o(x$fpl$dflt)
    __aeabi_ui2d                             0x08005921   Thumb Code     0  dflt_clz.o(x$fpl$dfltu)
    _dfltu                                   0x08005921   Thumb Code    10  dflt_clz.o(x$fpl$dfltu)
    __aeabi_cdcmple                          0x0800592d   Thumb Code     0  dleqf.o(x$fpl$dleqf)
    _dcmple                                  0x0800592d   Thumb Code   106  dleqf.o(x$fpl$dleqf)
    __aeabi_dmul                             0x0800599d   Thumb Code     0  dmul.o(x$fpl$dmul)
    _dmul                                    0x0800599d   Thumb Code   440  dmul.o(x$fpl$dmul)
    __fpl_inf_dmul                           0x08005b27   Thumb Code     0  dmul.o(x$fpl$dmul)
    __aeabi_cdrcmple                         0x08005b65   Thumb Code     0  drleqf.o(x$fpl$drleqf)
    _drcmple                                 0x08005b65   Thumb Code   130  drleqf.o(x$fpl$drleqf)
    __dunder                                 0x08005bed   Thumb Code   234  dunder.o(x$fpl$dunder)
    __dunder_d                               0x08005cd7   Thumb Code     2  dunder.o(x$fpl$dunder)
    __fpl_return_NaN                         0x08005cd9   Thumb Code   100  retnan.o(x$fpl$retnan)
    __fpl_cmpreturn                          0x08005d3d   Thumb Code    48  trapv.o(x$fpl$trapveneer)
    __I$use$fp                               0x08005d6d   Thumb Code     0  usenofp.o(x$fpl$usenofp)
    asc2_1206                                0x08005d6c   Data        1140  lcd.o(.constdata)
    asc2_1608                                0x080061e0   Data        1520  lcd.o(.constdata)
    hanzi                                    0x080067d0   Data        1408  lcd.o(.constdata)
    Region$$Table$$Base                      0x08006d8c   Number         0  anon$$obj.o(Region$$Table)
    Region$$Table$$Limit                     0x08006dac   Number         0  anon$$obj.o(Region$$Table)
    t                                        0x20000000   Data           1  main.o(.data)
    tt                                       0x20000001   Data           1  main.o(.data)
    xiaoshu                                  0x20000008   Data           8  main.o(.data)
    zhengshubufen                            0x20000010   Data           4  main.o(.data)
    xiaoshubufen                             0x20000018   Data           8  main.o(.data)
    N1                                       0x20000020   Data           4  main.o(.data)
    N2                                       0x20000024   Data           4  main.o(.data)
    T                                        0x20000028   Data           8  main.o(.data)
    Tint                                     0x20000030   Data           4  main.o(.data)
    baifenbi                                 0x20000038   Data           8  main.o(.data)
    freq                                     0x20000040   Data           8  main.o(.data)
    baifenbiint                              0x20000048   Data           4  main.o(.data)
    freqint                                  0x2000004c   Data           4  main.o(.data)
    freqxiaoshu                              0x20000050   Data           4  main.o(.data)
    SystemCoreClock                          0x20000054   Data           4  system_stm32f10x.o(.data)
    AHBPrescTable                            0x20000058   Data          16  system_stm32f10x.o(.data)
    READFLAG                                 0x20000068   Data           1  exti.o(.data)
    tempdata1                                0x2000006c   Data           4  exti.o(.data)
    tempdata2                                0x20000070   Data           4  exti.o(.data)
    data32bit2                               0x20000074   Data           4  exti.o(.data)
    data32bit1                               0x20000078   Data           4  exti.o(.data)
    dataNum                                  0x2000007c   Data           1  exti.o(.data)
    read8bit                                 0x20000080   Data           4  exti.o(.data)
    POINT_COLOR                              0x20000084   Data           2  lcd.o(.data)
    BACK_COLOR                               0x20000086   Data           2  lcd.o(.data)
    DeviceCode                               0x20000088   Data           2  lcd.o(.data)
    USART_RX_STA                             0x20000090   Data           1  usart.o(.data)
    __stdout                                 0x20000094   Data           4  usart.o(.data)
    DisNum                                   0x200000ac   Data           9  main.o(.bss)
    USART_RX_BUF                             0x200000b5   Data          64  usart.o(.bss)
    __libspace_start                         0x200000f8   Data          96  libspace.o(.bss)
    __temporary_stack_top$libspace           0x20000158   Data           0  libspace.o(.bss)



==============================================================================

Memory Map of the image

  Image Entry point : 0x080000ed

  Load Region LR_IROM1 (Base: 0x08000000, Size: 0x00006e58, Max: 0x00040000, ABSOLUTE)

    Execution Region ER_IROM1 (Base: 0x08000000, Size: 0x00006dac, Max: 0x00040000, ABSOLUTE)

    Base Addr    Size         Type   Attr      Idx    E Section Name        Object

    0x08000000   0x000000ec   Data   RO          429    RESET               startup_stm32f10x_md.o
    0x080000ec   0x00000008   Code   RO          774  * !!!main             __main.o(c_w.l)
    0x080000f4   0x00000034   Code   RO          975    !!!scatter          __scatter.o(c_w.l)
    0x08000128   0x0000001a   Code   RO          977    !!handler_copy      __scatter_copy.o(c_w.l)
    0x08000142   0x00000002   PAD
    0x08000144   0x0000001c   Code   RO          979    !!handler_zi        __scatter_zi.o(c_w.l)
    0x08000160   0x00000000   Code   RO          771    .ARM.Collect$$_printf_percent$$00000000  _printf_percent.o(c_w.l)
    0x08000160   0x00000006   Code   RO          770    .ARM.Collect$$_printf_percent$$0000000A  _printf_u.o(c_w.l)
    0x08000166   0x00000006   Code   RO          769    .ARM.Collect$$_printf_percent$$0000000C  _printf_x.o(c_w.l)
    0x0800016c   0x00000004   Code   RO          804    .ARM.Collect$$_printf_percent$$00000017  _printf_percent_end.o(c_w.l)
    0x08000170   0x00000006   Code   RO          854    .ARM.Collect$$libinit$$00000000  libinit.o(c_w.l)
    0x08000176   0x00000000   Code   RO          862    .ARM.Collect$$libinit$$00000006  libinit2.o(c_w.l)
    0x08000176   0x00000000   Code   RO          864    .ARM.Collect$$libinit$$00000008  libinit2.o(c_w.l)
    0x08000176   0x00000000   Code   RO          866    .ARM.Collect$$libinit$$0000000A  libinit2.o(c_w.l)
    0x08000176   0x00000000   Code   RO          869    .ARM.Collect$$libinit$$0000000D  libinit2.o(c_w.l)
    0x08000176   0x00000000   Code   RO          871    .ARM.Collect$$libinit$$0000000F  libinit2.o(c_w.l)
    0x08000176   0x00000000   Code   RO          873    .ARM.Collect$$libinit$$00000011  libinit2.o(c_w.l)
    0x08000176   0x00000000   Code   RO          875    .ARM.Collect$$libinit$$00000013  libinit2.o(c_w.l)
    0x08000176   0x00000000   Code   RO          877    .ARM.Collect$$libinit$$00000015  libinit2.o(c_w.l)
    0x08000176   0x00000000   Code   RO          879    .ARM.Collect$$libinit$$00000017  libinit2.o(c_w.l)
    0x08000176   0x00000000   Code   RO          881    .ARM.Collect$$libinit$$00000019  libinit2.o(c_w.l)
    0x08000176   0x00000000   Code   RO          883    .ARM.Collect$$libinit$$0000001B  libinit2.o(c_w.l)
    0x08000176   0x00000000   Code   RO          885    .ARM.Collect$$libinit$$0000001D  libinit2.o(c_w.l)
    0x08000176   0x00000000   Code   RO          887    .ARM.Collect$$libinit$$0000001F  libinit2.o(c_w.l)
    0x08000176   0x00000000   Code   RO          889    .ARM.Collect$$libinit$$00000021  libinit2.o(c_w.l)
    0x08000176   0x00000000   Code   RO          893    .ARM.Collect$$libinit$$00000028  libinit2.o(c_w.l)
    0x08000176   0x00000000   Code   RO          895    .ARM.Collect$$libinit$$0000002A  libinit2.o(c_w.l)
    0x08000176   0x00000000   Code   RO          897    .ARM.Collect$$libinit$$0000002C  libinit2.o(c_w.l)
    0x08000176   0x00000000   Code   RO          899    .ARM.Collect$$libinit$$0000002E  libinit2.o(c_w.l)
    0x08000176   0x00000002   Code   RO          900    .ARM.Collect$$libinit$$0000002F  libinit2.o(c_w.l)
    0x08000178   0x00000002   Code   RO          919    .ARM.Collect$$libshutdown$$00000000  libshutdown.o(c_w.l)
    0x0800017a   0x00000000   Code   RO          930    .ARM.Collect$$libshutdown$$00000003  libshutdown2.o(c_w.l)
    0x0800017a   0x00000000   Code   RO          933    .ARM.Collect$$libshutdown$$00000006  libshutdown2.o(c_w.l)
    0x0800017a   0x00000000   Code   RO          936    .ARM.Collect$$libshutdown$$00000009  libshutdown2.o(c_w.l)
    0x0800017a   0x00000000   Code   RO          938    .ARM.Collect$$libshutdown$$0000000B  libshutdown2.o(c_w.l)
    0x0800017a   0x00000000   Code   RO          941    .ARM.Collect$$libshutdown$$0000000E  libshutdown2.o(c_w.l)
    0x0800017a   0x00000002   Code   RO          942    .ARM.Collect$$libshutdown$$0000000F  libshutdown2.o(c_w.l)
    0x0800017c   0x00000000   Code   RO          796    .ARM.Collect$$rtentry$$00000000  rtentry.o(c_w.l)
    0x0800017c   0x00000000   Code   RO          821    .ARM.Collect$$rtentry$$00000002  rtentry2.o(c_w.l)
    0x0800017c   0x00000006   Code   RO          836    .ARM.Collect$$rtentry$$00000004  rtentry4.o(c_w.l)
    0x08000182   0x00000000   Code   RO          823    .ARM.Collect$$rtentry$$00000009  rtentry2.o(c_w.l)
    0x08000182   0x00000004   Code   RO          824    .ARM.Collect$$rtentry$$0000000A  rtentry2.o(c_w.l)
    0x08000186   0x00000000   Code   RO          826    .ARM.Collect$$rtentry$$0000000C  rtentry2.o(c_w.l)
    0x08000186   0x00000008   Code   RO          827    .ARM.Collect$$rtentry$$0000000D  rtentry2.o(c_w.l)
    0x0800018e   0x00000000   Code   RO          858    .ARM.Collect$$rtexit$$00000000  rtexit.o(c_w.l)
    0x0800018e   0x00000000   Code   RO          904    .ARM.Collect$$rtexit$$00000002  rtexit2.o(c_w.l)
    0x0800018e   0x00000004   Code   RO          905    .ARM.Collect$$rtexit$$00000003  rtexit2.o(c_w.l)
    0x08000192   0x00000004   Code   RO          906    .ARM.Collect$$rtexit$$00000004  rtexit2.o(c_w.l)
    0x08000196   0x00000002   PAD
    0x08000198   0x000007a8   Code   RO            1    .text               main.o
    0x08000940   0x0000001a   Code   RO          136    .text               stm32f10x_it.o
    0x0800095a   0x00000002   PAD
    0x0800095c   0x000001c8   Code   RO          177    .text               system_stm32f10x.o
    0x08000b24   0x00000614   Code   RO          195    .text               ui.o
    0x08001138   0x00000284   Code   RO          207    .text               exti.o
    0x080013bc   0x000005a8   Code   RO          229    .text               keyboard.o
    0x08001964   0x00002654   Code   RO          241    .text               lcd.o
    0x08003fb8   0x0000003c   Code   RO          269    .text               sendtofpga.o
    0x08003ff4   0x00000098   Code   RO          281    .text               delay.o
    0x0800408c   0x0000000c   Code   RO          295    .text               sys.o
    0x08004098   0x00000140   Code   RO          307    .text               usart.o
    0x080041d8   0x00000040   Code   RO          430    .text               startup_stm32f10x_md.o
    0x08004218   0x000000e0   Code   RO          434    .text               misc.o
    0x080042f8   0x00000130   Code   RO          542    .text               stm32f10x_exti.o
    0x08004428   0x00000348   Code   RO          578    .text               stm32f10x_gpio.o
    0x08004770   0x00000390   Code   RO          626    .text               stm32f10x_rcc.o
    0x08004b00   0x00000408   Code   RO          688    .text               stm32f10x_usart.o
    0x08004f08   0x00000002   Code   RO          714    .text               use_no_semi_2.o(c_w.l)
    0x08004f0a   0x00000002   PAD
    0x08004f0c   0x00000020   Code   RO          720    .text               noretval__2printf.o(c_w.l)
    0x08004f2c   0x00000028   Code   RO          722    .text               noretval__2sprintf.o(c_w.l)
    0x08004f54   0x0000004c   Code   RO          726    .text               _printf_pad.o(c_w.l)
    0x08004fa0   0x00000070   Code   RO          728    .text               _printf_dec.o(c_w.l)
    0x08005010   0x0000005c   Code   RO          733    .text               _printf_hex_int.o(c_w.l)
    0x0800506c   0x00000148   Code   RO          761    .text               __printf_flags_wp.o(c_w.l)
    0x080051b4   0x00000006   Code   RO          772    .text               heapauxi.o(c_w.l)
    0x080051ba   0x00000002   Code   RO          794    .text               use_no_semi.o(c_w.l)
    0x080051bc   0x000000ae   Code   RO          798    .text               _printf_intcommon.o(c_w.l)
    0x0800526a   0x00000002   PAD
    0x0800526c   0x00000030   Code   RO          800    .text               _printf_char_common.o(c_w.l)
    0x0800529c   0x0000000a   Code   RO          802    .text               _sputc.o(c_w.l)
    0x080052a6   0x00000010   Code   RO          809    .text               rtudiv10.o(c_w.l)
    0x080052b6   0x0000004a   Code   RO          844    .text               sys_stackheap_outer.o(c_w.l)
    0x08005300   0x0000000c   Code   RO          846    .text               exit.o(c_w.l)
    0x0800530c   0x00000008   Code   RO          855    .text               libspace.o(c_w.l)
    0x08005314   0x000000d4   Code   RO          254    i.LCD_SetCursor     lcd.o
    0x080053e8   0x00000010   Code   RO          811    x$fpl$dcheck        dcheck.o(fz_ws.l)
    0x080053f8   0x00000010   Code   RO          813    x$fpl$dcheck1       dcheck1.o(fz_ws.l)
    0x08005408   0x00000078   Code   RO          815    x$fpl$dcmpinfnan    dcmpin.o(fz_ws.l)
    0x08005480   0x00000400   Code   RO          777    x$fpl$ddiv          ddiv.o(fz_ws.l)
    0x08005880   0x00000074   Code   RO          780    x$fpl$dfixu         dfixu.o(fz_ws.l)
    0x080058f4   0x0000002c   Code   RO          785    x$fpl$dflt          dflt_clz.o(fz_ws.l)
    0x08005920   0x0000000a   Code   RO          784    x$fpl$dfltu         dflt_clz.o(fz_ws.l)
    0x0800592a   0x00000002   PAD
    0x0800592c   0x00000070   Code   RO          788    x$fpl$dleqf         dleqf.o(fz_ws.l)
    0x0800599c   0x000001c8   Code   RO          790    x$fpl$dmul          dmul.o(fz_ws.l)
    0x08005b64   0x00000088   Code   RO          792    x$fpl$drleqf        drleqf.o(fz_ws.l)
    0x08005bec   0x000000ec   Code   RO          817    x$fpl$dunder        dunder.o(fz_ws.l)
    0x08005cd8   0x00000064   Code   RO          840    x$fpl$retnan        retnan.o(fz_ws.l)
    0x08005d3c   0x00000030   Code   RO          842    x$fpl$trapveneer    trapv.o(fz_ws.l)
    0x08005d6c   0x00000000   Code   RO          819    x$fpl$usenofp       usenofp.o(fz_ws.l)
    0x08005d6c   0x00000fe4   Data   RO          242    .constdata          lcd.o
    0x08006d50   0x00000028   Data   RO          734    .constdata          _printf_hex_int.o(c_w.l)
    0x08006d78   0x00000011   Data   RO          762    .constdata          __printf_flags_wp.o(c_w.l)
    0x08006d89   0x00000003   PAD
    0x08006d8c   0x00000020   Data   RO          973    Region$$Table       anon$$obj.o


    Execution Region RW_IRAM1 (Base: 0x20000000, Size: 0x00000758, Max: 0x0000c000, ABSOLUTE)

    Base Addr    Size         Type   Attr      Idx    E Section Name        Object

    0x20000000   0x00000054   Data   RW            3    .data               main.o
    0x20000054   0x00000014   Data   RW          178    .data               system_stm32f10x.o
    0x20000068   0x0000001c   Data   RW          208    .data               exti.o
    0x20000084   0x00000006   Data   RW          243    .data               lcd.o
    0x2000008a   0x00000004   Data   RW          282    .data               delay.o
    0x2000008e   0x00000002   PAD
    0x20000090   0x00000008   Data   RW          309    .data               usart.o
    0x20000098   0x00000014   Data   RW          627    .data               stm32f10x_rcc.o
    0x200000ac   0x00000009   Zero   RW            2    .bss                main.o
    0x200000b5   0x00000040   Zero   RW          308    .bss                usart.o
    0x200000f5   0x00000003   PAD
    0x200000f8   0x00000060   Zero   RW          856    .bss                libspace.o(c_w.l)
    0x20000158   0x00000200   Zero   RW          428    HEAP                startup_stm32f10x_md.o
    0x20000358   0x00000400   Zero   RW          427    STACK               startup_stm32f10x_md.o


==============================================================================

Image component sizes


      Code (inc. data)   RO Data    RW Data    ZI Data      Debug   Object Name

         0          0          0          0          0         20   core_cm3.o
       152          6          0          4          0       1055   delay.o
       644         32          0         28          0       1508   exti.o
      1448         20          0          0          0       1946   keyboard.o
     10024        176       4068          6          0      14785   lcd.o
      1960        324          0         84          9     220331   main.o
       224         20          0          0          0       1765   misc.o
        60          6          0          0          0        526   sendtofpga.o
        64         26        236          0       1536        488   startup_stm32f10x_md.o
       304         14          0          0          0       2219   stm32f10x_exti.o
       840         38          0          0          0       5649   stm32f10x_gpio.o
        26          0          0          0          0       1178   stm32f10x_it.o
       912         32          0         20          0       8764   stm32f10x_rcc.o
      1032         20          0          0          0       8404   stm32f10x_usart.o
        12          0          0          0          0        449   sys.o
       456         36          0         20          0       1739   system_stm32f10x.o
      1556         32          0          0          0       1293   ui.o
       320         16          0          8         64     231666   usart.o

    ----------------------------------------------------------------------
     20036        798       4336        172       1612     503785   Object Totals
         0          0         32          0          0          0   (incl. Generated)
         2          0          0          2          3          3   (incl. Padding)

    ----------------------------------------------------------------------

      Code (inc. data)   RO Data    RW Data    ZI Data      Debug   Library Member Name

         8          0          0          0          0         68   __main.o
       328          4         17          0          0         88   __printf_flags_wp.o
        52          8          0          0          0          0   __scatter.o
        26          0          0          0          0          0   __scatter_copy.o
        28          0          0          0          0          0   __scatter_zi.o
        48          4          0          0          0         96   _printf_char_common.o
       112         16          0          0          0         92   _printf_dec.o
        92          6         40          0          0         84   _printf_hex_int.o
       174          0          0          0          0         88   _printf_intcommon.o
        76          0          0          0          0        104   _printf_pad.o
         0          0          0          0          0          0   _printf_percent.o
         4          0          0          0          0          0   _printf_percent_end.o
         6          0          0          0          0          0   _printf_u.o
         6          0          0          0          0          0   _printf_x.o
        10          0          0          0          0         68   _sputc.o
        16          6          0          0          0         68   dcheck.o
        16          6          0          0          0         68   dcheck1.o
       120          0          0          0          0         84   dcmpin.o
      1024        272          0          0          0        160   ddiv.o
       116          6          0          0          0         72   dfixu.o
        54          0          0          0          0        136   dflt_clz.o
       112          6          0          0          0         68   dleqf.o
       456         16          0          0          0        100   dmul.o
       136          6          0          0          0         68   drleqf.o
       236          0          0          0          0         92   dunder.o
        12          0          0          0          0         68   exit.o
         6          0          0          0          0        148   heapauxi.o
         6          0          0          0          0          0   libinit.o
         2          0          0          0          0          0   libinit2.o
         2          0          0          0          0          0   libshutdown.o
         2          0          0          0          0          0   libshutdown2.o
         8          4          0          0         96         68   libspace.o
        32          8          0          0          0         80   noretval__2printf.o
        40          6          0          0          0         80   noretval__2sprintf.o
       100          0          0          0          0         68   retnan.o
         0          0          0          0          0          0   rtentry.o
        12          0          0          0          0          0   rtentry2.o
         6          0          0          0          0          0   rtentry4.o
         0          0          0          0          0          0   rtexit.o
         8          0          0          0          0          0   rtexit2.o
        16          0          0          0          0         68   rtudiv10.o
        74          0          0          0          0         80   sys_stackheap_outer.o
        48          0          0          0          0         68   trapv.o
         2          0          0          0          0         68   use_no_semi.o
         2          0          0          0          0         68   use_no_semi_2.o
         0          0          0          0          0          0   usenofp.o

    ----------------------------------------------------------------------
      3644        374         60          0         96       2468   Library Totals
        10          0          3          0          0          0   (incl. Padding)

    ----------------------------------------------------------------------

      Code (inc. data)   RO Data    RW Data    ZI Data      Debug   Library Name

      1200         56         57          0         96       1416   c_w.l
      2434        318          0          0          0       1052   fz_ws.l

    ----------------------------------------------------------------------
      3644        374         60          0         96       2468   Library Totals

    ----------------------------------------------------------------------

==============================================================================


      Code (inc. data)   RO Data    RW Data    ZI Data      Debug   

     23680       1172       4396        172       1708     503556   Grand Totals
     23680       1172       4396        172       1708     503556   ELF Image Totals
     23680       1172       4396        172          0          0   ROM Totals

==============================================================================

    Total RO  Size (Code + RO Data)                28076 (  27.42kB)
    Total RW  Size (RW Data + ZI Data)              1880 (   1.84kB)
    Total ROM Size (Code + RO Data + RW Data)      28248 (  27.59kB)

==============================================================================

